{
  "contractName": "erc1271",
  "abi": [
    {
      "constant": true,
      "inputs": [],
      "name": "owner",
      "outputs": [
        {
          "internalType": "address",
          "name": "",
          "type": "address"
        }
      ],
      "payable": false,
      "stateMutability": "view",
      "type": "function"
    },
    {
      "constant": true,
      "inputs": [
        {
          "internalType": "bytes32",
          "name": "_hash",
          "type": "bytes32"
        },
        {
          "internalType": "bytes",
          "name": "_signature",
          "type": "bytes"
        }
      ],
      "name": "isValidSignature",
      "outputs": [
        {
          "internalType": "bytes4",
          "name": "",
          "type": "bytes4"
        }
      ],
      "payable": false,
      "stateMutability": "view",
      "type": "function"
    },
    {
      "constant": true,
      "inputs": [
        {
          "internalType": "bytes32",
          "name": "_hash",
          "type": "bytes32"
        },
        {
          "internalType": "bytes",
          "name": "_signature",
          "type": "bytes"
        }
      ],
      "name": "recoverSignature",
      "outputs": [
        {
          "internalType": "address",
          "name": "",
          "type": "address"
        }
      ],
      "payable": false,
      "stateMutability": "pure",
      "type": "function"
    }
  ],
  "bytecode": "0x608060405234801561001057600080fd5b50610680806100206000396000f3fe608060405234801561001057600080fd5b50600436106100415760003560e01c80631626ba7e146100465780637621fd671461011b5780638da5cb5b14610220575b600080fd5b6100c76004803603604081101561005c57600080fd5b81019080803590602001909291908035906020019064010000000081111561008357600080fd5b82018360208201111561009557600080fd5b803590602001918460018302840111640100000000831117156100b757600080fd5b909192939192939050505061026a565b60405180827bffffffffffffffffffffffffffffffffffffffffffffffffffffffff19167bffffffffffffffffffffffffffffffffffffffffffffffffffffffff1916815260200191505060405180910390f35b6101de6004803603604081101561013157600080fd5b81019080803590602001909291908035906020019064010000000081111561015857600080fd5b82018360208201111561016a57600080fd5b8035906020019184600183028401116401000000008311171561018c57600080fd5b91908080601f016020809104026020016040519081016040528093929190818152602001838380828437600081840152601f19601f820116905080830192505050505050509192919290505050610328565b604051808273ffffffffffffffffffffffffffffffffffffffff1673ffffffffffffffffffffffffffffffffffffffff16815260200191505060405180910390f35b6102286105b5565b604051808273ffffffffffffffffffffffffffffffffffffffff1673ffffffffffffffffffffffffffffffffffffffff16815260200191505060405180910390f35b6000806102bb8585858080601f016020809104026020016040519081016040528093929190818152602001838380828437600081840152601f19601f82011690508083019250505050505050610328565b905073f3ca7784b075bbc683aaeb18c11e47e5ee3f335073ffffffffffffffffffffffffffffffffffffffff168173ffffffffffffffffffffffffffffffffffffffff16141561031557631626ba7e60e01b915050610321565b63ffffffff60e01b9150505b9392505050565b600060418251146103a1576040517f08c379a000000000000000000000000000000000000000000000000000000000815260040180806020018281038252601e8152602001807f5369676e6174757265206c656e677468206973206e6f742076616c696421000081525060200191505060405180910390fd5b6000826040815181106103b057fe5b602001015160f81c60f81b60f81c905060008060208501519150604085015190507f7fffffffffffffffffffffffffffffff5d576e7357a4501ddfe92f46681b20a08160001c111561044d576040517f08c379a000000000000000000000000000000000000000000000000000000000815260040180806020018281038252602e8152602001806105fc602e913960400191505060405180910390fd5b601b8360ff1614806104625750601c8360ff16145b6104b7576040517f08c379a000000000000000000000000000000000000000000000000000000000815260040180806020018281038252602e8152602001806105ce602e913960400191505060405180910390fd5b600060018785858560405160008152602001604052604051808581526020018460ff1660ff1681526020018381526020018281526020019450505050506020604051602081039080840390855afa158015610516573d6000803e3d6000fd5b505050602060405103519050600073ffffffffffffffffffffffffffffffffffffffff168173ffffffffffffffffffffffffffffffffffffffff1614156105a8576040517f08c379a000000000000000000000000000000000000000000000000000000000815260040180806020018281038252602281526020018061062a6022913960400191505060405180910390fd5b8094505050505092915050565b73f3ca7784b075bbc683aaeb18c11e47e5ee3f33508156fe20546865202776272076616c7565206f6620746865207369676e6174757265206973206e6f742076616c6964212020546865202773272076616c7565206f6620746865207369676e6174757265206973206e6f742076616c6964212020546865207369676e65722061646472657373206973206e6f742076616c69642120a265627a7a72315820821d68bdd51556f8829341349e9fb84d2a2156266391f615f6dc8b83eaabcd7864736f6c63430005100032",
  "source": "// SPDX-License-Identifier: MIT`\r\n\r\npragma solidity ^0.5.12;\r\n\r\ncontract erc1271{\r\n\r\n    address constant public owner = 0xF3ca7784b075Bbc683Aaeb18C11E47E5ee3f3350;\r\n    bytes4 constant internal MAGICVALUE = 0x1626ba7e;\r\n\r\n    function isValidSignature( bytes32 _hash , bytes calldata _signature ) external view returns ( bytes4 ){\r\n\r\n        address signer = recoverSignature( _hash , _signature );\r\n\r\n        if( signer == owner ){\r\n\r\n            return 0x1626ba7e;\r\n\r\n        }else{\r\n\r\n            return 0xffffffff;\r\n\r\n        }\r\n\r\n    }\r\n\r\n    function recoverSignature( bytes32 _hash , bytes memory _signature ) public pure returns( address ){\r\n\r\n        require( _signature.length == 65 , \"Signature length is not valid!\" );\r\n\r\n        uint8 v = uint8( _signature[ 64 ] );\r\n        bytes32 r;\r\n        bytes32 s;\r\n\r\n        assembly {\r\n\r\n            r := mload( add( _signature , 0x20 ) )\r\n            s := mload( add( _signature , 0x40 ) )\r\n\r\n        }\r\n\r\n        require( uint256( s ) <= 0x7FFFFFFFFFFFFFFFFFFFFFFFFFFFFFFF5D576E7357A4501DDFE92F46681B20A0 ,\r\n                    \" The 's' value of the signature is not valid! \" );\r\n        require( v == 27 || v == 28 , \" The 'v' value of the signature is not valid! \" );\r\n\r\n        address signer = ecrecover( _hash , v , r , s );\r\n\r\n        require( signer != address( 0x0 ) , \" The signer address is not valid! \" );\r\n\r\n        return signer;\r\n\r\n    }\r\n\r\n}",
  "sourcePath": "E:\\smartContract\\contracts\\erc1271.sol",
  "compiler": {
    "name": "solc",
    "version": "0.5.16+commit.9c3226ce.Emscripten.clang"
  },
  "schemaVersion": "3.4.16",
  "updatedAt": "2024-06-06T11:35:05.322Z",
  "networkType": "ethereum",
  "devdoc": {
    "methods": {}
  },
  "userdoc": {
    "methods": {}
  }
}