{
  "contractName": "voteSystem",
  "abi": [
    {
      "inputs": [
        {
          "components": [
            {
              "internalType": "bytes",
              "name": "firstname",
              "type": "bytes"
            },
            {
              "internalType": "bytes",
              "name": "lastname",
              "type": "bytes"
            },
            {
              "internalType": "uint40",
              "name": "id",
              "type": "uint40"
            },
            {
              "internalType": "uint8",
              "name": "voteID",
              "type": "uint8"
            }
          ],
          "internalType": "struct voteSystem.candidate[]",
          "name": "listOfCandidates",
          "type": "tuple[]"
        }
      ],
      "payable": false,
      "stateMutability": "nonpayable",
      "type": "constructor"
    },
    {
      "anonymous": false,
      "inputs": [
        {
          "indexed": false,
          "internalType": "string",
          "name": "fullname",
          "type": "string"
        },
        {
          "indexed": false,
          "internalType": "uint40",
          "name": "id",
          "type": "uint40"
        },
        {
          "indexed": false,
          "internalType": "uint8",
          "name": "voteID",
          "type": "uint8"
        }
      ],
      "name": "newCandidateAdded",
      "type": "event"
    },
    {
      "anonymous": false,
      "inputs": [
        {
          "indexed": false,
          "internalType": "uint256",
          "name": "startAt",
          "type": "uint256"
        },
        {
          "indexed": false,
          "internalType": "uint256",
          "name": "endAt",
          "type": "uint256"
        }
      ],
      "name": "votePeriodSet",
      "type": "event"
    },
    {
      "constant": true,
      "inputs": [],
      "name": "endOfVotePeriod",
      "outputs": [
        {
          "internalType": "uint256",
          "name": "",
          "type": "uint256"
        }
      ],
      "payable": false,
      "stateMutability": "view",
      "type": "function"
    },
    {
      "constant": true,
      "inputs": [],
      "name": "startOfVotePeriod",
      "outputs": [
        {
          "internalType": "uint256",
          "name": "",
          "type": "uint256"
        }
      ],
      "payable": false,
      "stateMutability": "view",
      "type": "function"
    },
    {
      "constant": true,
      "inputs": [],
      "name": "trustedAccount",
      "outputs": [
        {
          "internalType": "address",
          "name": "",
          "type": "address"
        }
      ],
      "payable": false,
      "stateMutability": "view",
      "type": "function"
    },
    {
      "constant": true,
      "inputs": [
        {
          "internalType": "uint8",
          "name": "candidateVoteID",
          "type": "uint8"
        }
      ],
      "name": "viewList",
      "outputs": [
        {
          "components": [
            {
              "internalType": "bytes",
              "name": "firstname",
              "type": "bytes"
            },
            {
              "internalType": "bytes",
              "name": "lastname",
              "type": "bytes"
            },
            {
              "internalType": "uint40",
              "name": "id",
              "type": "uint40"
            },
            {
              "internalType": "uint8",
              "name": "voteID",
              "type": "uint8"
            }
          ],
          "internalType": "struct voteSystem.candidate",
          "name": "",
          "type": "tuple"
        }
      ],
      "payable": false,
      "stateMutability": "view",
      "type": "function"
    },
    {
      "constant": false,
      "inputs": [
        {
          "internalType": "uint256",
          "name": "startTime",
          "type": "uint256"
        },
        {
          "internalType": "uint256",
          "name": "endTime",
          "type": "uint256"
        }
      ],
      "name": "setVotePeriod",
      "outputs": [],
      "payable": false,
      "stateMutability": "nonpayable",
      "type": "function"
    }
  ],
  "bytecode": "0x60806040523480156200001157600080fd5b50604051620010f3380380620010f3833981810160405262000037919081019062000550565b73f3ca7784b075bbc683aaeb18c11e47e5ee3f335073ffffffffffffffffffffffffffffffffffffffff163273ffffffffffffffffffffffffffffffffffffffff1614620000bc576040517f08c379a0000000000000000000000000000000000000000000000000000000008152600401620000b39062000703565b60405180910390fd5b60008090505b8151811015620002e1576040518060800160405280838381518110620000e457fe5b60200260200101516000015181526020018383815181106200010257fe5b60200260200101516020015181526020018383815181106200012057fe5b60200260200101516040015164ffffffffff1681526020018383815181106200014557fe5b60200260200101516060015160ff16815250600260008484815181106200016857fe5b60200260200101516060015160ff1660ff1681526020019081526020016000206000820151816000019080519060200190620001a6929190620002e9565b506020820151816001019080519060200190620001c5929190620002e9565b5060408201518160020160006101000a81548164ffffffffff021916908364ffffffffff16021790555060608201518160020160056101000a81548160ff021916908360ff1602179055509050507f269847ba75c4426852af4d6cbb2f2ec004448bd39c63cd3e7a3070e749dc10268282815181106200024157fe5b6020026020010151600001518383815181106200025a57fe5b6020026020010151602001516040516020016200027992919062000697565b6040516020818303038152906040528383815181106200029557fe5b602002602001015160400151848481518110620002ae57fe5b602002602001015160600151604051620002cb93929190620006bf565b60405180910390a18080600101915050620000c2565b505062000874565b828054600181600116156101000203166002900490600052602060002090601f016020900481019282601f106200032c57805160ff19168380011785556200035d565b828001600101855582156200035d579182015b828111156200035c5782518255916020019190600101906200033f565b5b5090506200036c919062000370565b5090565b6200039591905b808211156200039157600081600090555060010162000377565b5090565b90565b600082601f830112620003aa57600080fd5b8151620003c1620003bb8262000753565b62000725565b9150818183526020840193506020810190508360005b838110156200040b5781518601620003f0888262000471565b845260208401935060208301925050600181019050620003d7565b5050505092915050565b600082601f8301126200042757600080fd5b81516200043e62000438826200077c565b62000725565b915080825260208301602083018583830111156200045b57600080fd5b62000468838284620007f9565b50505092915050565b6000608082840312156200048457600080fd5b62000490608062000725565b9050600082015167ffffffffffffffff811115620004ad57600080fd5b620004bb8482850162000415565b600083015250602082015167ffffffffffffffff811115620004dc57600080fd5b620004ea8482850162000415565b6020830152506040620005008482850162000522565b6040830152506060620005168482850162000539565b60608301525092915050565b600081519050620005338162000840565b92915050565b6000815190506200054a816200085a565b92915050565b6000602082840312156200056357600080fd5b600082015167ffffffffffffffff8111156200057e57600080fd5b6200058c8482850162000398565b91505092915050565b6000620005a282620007a9565b620005ae8185620007bf565b9350620005c0818560208601620007f9565b80840191505092915050565b6000620005d982620007b4565b620005e58185620007ca565b9350620005f7818560208601620007f9565b62000602816200082f565b840191505092915050565b60006200061c603083620007ca565b91507f4a757374207468652074727573746564206163636f756e742063616e2064657060008301527f6c6f7920766f74652073797374656d21000000000000000000000000000000006020830152604082019050919050565b6200068081620007db565b82525050565b6200069181620007ec565b82525050565b6000620006a5828562000595565b9150620006b3828462000595565b91508190509392505050565b60006060820190508181036000830152620006db8186620005cc565b9050620006ec602083018562000675565b620006fb604083018462000686565b949350505050565b600060208201905081810360008301526200071e816200060d565b9050919050565b6000604051905081810181811067ffffffffffffffff821117156200074957600080fd5b8060405250919050565b600067ffffffffffffffff8211156200076b57600080fd5b602082029050602081019050919050565b600067ffffffffffffffff8211156200079457600080fd5b601f19601f8301169050602081019050919050565b600081519050919050565b600081519050919050565b600081905092915050565b600082825260208201905092915050565b600064ffffffffff82169050919050565b600060ff82169050919050565b60005b8381101562000819578082015181840152602081019050620007fc565b8381111562000829576000848401525b50505050565b6000601f19601f8301169050919050565b6200084b81620007db565b81146200085757600080fd5b50565b6200086581620007ec565b81146200087157600080fd5b50565b61086f80620008846000396000f3fe608060405234801561001057600080fd5b50600436106100575760003560e01c80631a9c006a1461005c57806336dd63181461007a5780638246482f1461009857806397fdb02c146100c8578063dcad57d1146100e6575b600080fd5b610064610102565b60405161007191906106ef565b60405180910390f35b610082610108565b60405161008f9190610672565b60405180910390f35b6100b260048036036100ad919081019061049e565b610120565b6040516100bf91906106cd565b60405180910390f35b6100d06102dd565b6040516100dd91906106ef565b60405180910390f35b61010060048036036100fb9190810190610462565b6102e3565b005b60005481565b73f3ca7784b075bbc683aaeb18c11e47e5ee3f335081565b610128610406565b600260008360ff1660ff168152602001908152602001600020604051806080016040529081600082018054600181600116156101000203166002900480601f0160208091040260200160405190810160405280929190818152602001828054600181600116156101000203166002900480156101e55780601f106101ba576101008083540402835291602001916101e5565b820191906000526020600020905b8154815290600101906020018083116101c857829003601f168201915b50505050508152602001600182018054600181600116156101000203166002900480601f0160208091040260200160405190810160405280929190818152602001828054600181600116156101000203166002900480156102875780601f1061025c57610100808354040283529160200191610287565b820191906000526020600020905b81548152906001019060200180831161026a57829003601f168201915b505050505081526020016002820160009054906101000a900464ffffffffff1664ffffffffff1664ffffffffff1681526020016002820160059054906101000a900460ff1660ff1660ff16815250509050919050565b60015481565b338073ffffffffffffffffffffffffffffffffffffffff1673f3ca7784b075bbc683aaeb18c11e47e5ee3f335073ffffffffffffffffffffffffffffffffffffffff1614610366576040517f08c379a000000000000000000000000000000000000000000000000000000000815260040161035d906106ad565b60405180910390fd5b600080541480610377575060005442105b6103b6576040517f08c379a00000000000000000000000000000000000000000000000000000000081526004016103ad9061068d565b60405180910390fd5b82600081905550816001819055507fc475583fd13bd78f29fa1478c955f0dcb501a95f3062c8b8d5603b2afec349f06000546001546040516103f992919061070a565b60405180910390a1505050565b60405180608001604052806060815260200160608152602001600064ffffffffff168152602001600060ff1681525090565b600081359050610447816107fe565b92915050565b60008135905061045c81610815565b92915050565b6000806040838503121561047557600080fd5b600061048385828601610438565b925050602061049485828601610438565b9150509250929050565b6000602082840312156104b057600080fd5b60006104be8482850161044d565b91505092915050565b6104d081610760565b82525050565b60006104e182610733565b6104eb818561073e565b93506104fb8185602086016107ba565b610504816107ed565b840191505092915050565b600061051c60258361074f565b91507f52657365742074686520766f746520706572696f64206973206e6f7420616c6c60008301527f6f776564210000000000000000000000000000000000000000000000000000006020830152604082019050919050565b600061058260348361074f565b91507f4a757374207468652074727573746564206163636f756e74206861732061636360008301527f65737320746f20646f2074686973207461736b210000000000000000000000006020830152604082019050919050565b600060808301600083015184820360008601526105f882826104d6565b9150506020830151848203602086015261061282826104d6565b91505060408301516106276040860182610654565b50606083015161063a6060860182610663565b508091505092915050565b61064e81610792565b82525050565b61065d8161079c565b82525050565b61066c816107ad565b82525050565b600060208201905061068760008301846104c7565b92915050565b600060208201905081810360008301526106a68161050f565b9050919050565b600060208201905081810360008301526106c681610575565b9050919050565b600060208201905081810360008301526106e781846105db565b905092915050565b60006020820190506107046000830184610645565b92915050565b600060408201905061071f6000830185610645565b61072c6020830184610645565b9392505050565b600081519050919050565b600082825260208201905092915050565b600082825260208201905092915050565b600061076b82610772565b9050919050565b600073ffffffffffffffffffffffffffffffffffffffff82169050919050565b6000819050919050565b600064ffffffffff82169050919050565b600060ff82169050919050565b60005b838110156107d85780820151818401526020810190506107bd565b838111156107e7576000848401525b50505050565b6000601f19601f8301169050919050565b61080781610792565b811461081257600080fd5b50565b61081e816107ad565b811461082957600080fd5b5056fea365627a7a723158202134c8545a2771760e654184fbe6132723b1418ffc543fa36d8176fd30289bdd6c6578706572696d656e74616cf564736f6c63430005100040",
  "source": "// SPDX-License-Identifier: MIT`\r\n\r\npragma experimental ABIEncoderV2;\r\n\r\npragma solidity ^0.5.12;\r\n\r\nlibrary voteLibrary{\r\n\r\n    \r\n\r\n}\r\n\r\ncontract voteSystem{\r\n\r\n    address constant public trustedAccount = 0xF3ca7784b075Bbc683Aaeb18C11E47E5ee3f3350; //This address can change for each project using this contract!\r\n    uint public startOfVotePeriod;\r\n    uint public endOfVotePeriod;\r\n\r\n    event newCandidateAdded( string fullname , uint40 id , uint8 voteID );\r\n    event votePeriodSet( uint startAt , uint endAt );\r\n\r\n    struct candidate{\r\n\r\n        bytes firstname;\r\n        bytes lastname;\r\n        uint40 id;\r\n        uint8 voteID;\r\n\r\n    }\r\n\r\n    mapping( uint8 => candidate ) private candidateList;\r\n\r\n    modifier onlyTrustedAccount( address accountAddress ) {\r\n\r\n        require( trustedAccount == accountAddress , \"Just the trusted account has access to do this task!\" );\r\n        _;\r\n\r\n    }\r\n\r\n    constructor( candidate[] memory listOfCandidates ) public {\r\n\r\n        require( tx.origin == trustedAccount , \"Just the trusted account can deploy vote system!\");\r\n        for ( uint i = 0 ; i < listOfCandidates.length ; i++ ){\r\n\r\n            candidateList[listOfCandidates[i].voteID] = candidate( listOfCandidates[i].firstname , listOfCandidates[i].lastname , listOfCandidates[i].id , listOfCandidates[i].voteID );\r\n\r\n            emit newCandidateAdded( string( abi.encodePacked( listOfCandidates[i].firstname , listOfCandidates[i].lastname ) ) , listOfCandidates[i].id , listOfCandidates[i].voteID );\r\n\r\n        }\r\n\r\n    }\r\n\r\n    function viewList( uint8 candidateVoteID) external view returns( candidate memory ){\r\n\r\n        return ( candidateList[ candidateVoteID ] );\r\n\r\n    }\r\n\r\n    function setVotePeriod( uint startTime , uint endTime ) external onlyTrustedAccount( msg.sender ) {\r\n\r\n        require( startOfVotePeriod == 0 || block.timestamp < startOfVotePeriod , \"Reset the vote period is not allowed!\" );\r\n        \r\n        startOfVotePeriod = startTime;\r\n        endOfVotePeriod = endTime;\r\n\r\n        emit votePeriodSet( startOfVotePeriod , endOfVotePeriod );\r\n\r\n    }\r\n\r\n}",
  "sourcePath": "E:\\smartContract\\contracts\\votingSystem.sol",
  "compiler": {
    "name": "solc",
    "version": "0.5.16+commit.9c3226ce.Emscripten.clang"
  },
  "schemaVersion": "3.4.16",
  "updatedAt": "2024-06-04T14:33:56.670Z",
  "networkType": "ethereum",
  "devdoc": {
    "methods": {}
  },
  "userdoc": {
    "methods": {}
  }
}