{
  "contractName": "VoteSystem",
  "abi": [
    {
      "anonymous": false,
      "inputs": [
        {
          "indexed": false,
          "internalType": "bytes",
          "name": "fullname",
          "type": "bytes"
        },
        {
          "indexed": false,
          "internalType": "uint40",
          "name": "id",
          "type": "uint40"
        },
        {
          "indexed": false,
          "internalType": "uint8",
          "name": "voteID",
          "type": "uint8"
        }
      ],
      "name": "NewCandidateAdded",
      "type": "event"
    },
    {
      "anonymous": false,
      "inputs": [
        {
          "indexed": false,
          "internalType": "bytes",
          "name": "votedCandidate",
          "type": "bytes"
        },
        {
          "indexed": false,
          "internalType": "uint256",
          "name": "candidatesVoteID",
          "type": "uint256"
        },
        {
          "indexed": false,
          "internalType": "address",
          "name": "voter",
          "type": "address"
        }
      ],
      "name": "NewVoteTo",
      "type": "event"
    },
    {
      "anonymous": false,
      "inputs": [
        {
          "indexed": false,
          "internalType": "uint256",
          "name": "startAt",
          "type": "uint256"
        },
        {
          "indexed": false,
          "internalType": "uint256",
          "name": "endAt",
          "type": "uint256"
        }
      ],
      "name": "VotePeriodUpdate",
      "type": "event"
    },
    {
      "inputs": [],
      "name": "TRUSTED_ACCOUNT",
      "outputs": [
        {
          "internalType": "address",
          "name": "",
          "type": "address"
        }
      ],
      "stateMutability": "view",
      "type": "function",
      "constant": true
    },
    {
      "inputs": [],
      "name": "candidateCounter",
      "outputs": [
        {
          "internalType": "uint256",
          "name": "",
          "type": "uint256"
        }
      ],
      "stateMutability": "view",
      "type": "function",
      "constant": true
    },
    {
      "inputs": [],
      "name": "endOfVotePeriod",
      "outputs": [
        {
          "internalType": "uint256",
          "name": "",
          "type": "uint256"
        }
      ],
      "stateMutability": "view",
      "type": "function",
      "constant": true
    },
    {
      "inputs": [],
      "name": "startOfVotePeriod",
      "outputs": [
        {
          "internalType": "uint256",
          "name": "",
          "type": "uint256"
        }
      ],
      "stateMutability": "view",
      "type": "function",
      "constant": true
    },
    {
      "inputs": [
        {
          "components": [
            {
              "internalType": "bytes",
              "name": "firstname",
              "type": "bytes"
            },
            {
              "internalType": "bytes",
              "name": "lastname",
              "type": "bytes"
            },
            {
              "internalType": "uint40",
              "name": "id",
              "type": "uint40"
            },
            {
              "internalType": "uint8",
              "name": "voteID",
              "type": "uint8"
            },
            {
              "internalType": "uint256",
              "name": "voteCount",
              "type": "uint256"
            }
          ],
          "internalType": "struct VoteSystem.Candidate[]",
          "name": "listOfCandidates",
          "type": "tuple[]"
        }
      ],
      "name": "addCandidateList",
      "outputs": [],
      "stateMutability": "nonpayable",
      "type": "function"
    },
    {
      "inputs": [
        {
          "internalType": "uint8",
          "name": "candidateVoteID",
          "type": "uint8"
        }
      ],
      "name": "viewList",
      "outputs": [
        {
          "components": [
            {
              "internalType": "bytes",
              "name": "firstname",
              "type": "bytes"
            },
            {
              "internalType": "bytes",
              "name": "lastname",
              "type": "bytes"
            },
            {
              "internalType": "uint40",
              "name": "id",
              "type": "uint40"
            },
            {
              "internalType": "uint8",
              "name": "voteID",
              "type": "uint8"
            },
            {
              "internalType": "uint256",
              "name": "voteCount",
              "type": "uint256"
            }
          ],
          "internalType": "struct VoteSystem.Candidate",
          "name": "",
          "type": "tuple"
        }
      ],
      "stateMutability": "view",
      "type": "function",
      "constant": true
    },
    {
      "inputs": [
        {
          "internalType": "uint256",
          "name": "startTime",
          "type": "uint256"
        },
        {
          "internalType": "uint256",
          "name": "endTime",
          "type": "uint256"
        }
      ],
      "name": "setVotePeriod",
      "outputs": [],
      "stateMutability": "nonpayable",
      "type": "function"
    },
    {
      "inputs": [
        {
          "internalType": "uint8",
          "name": "candidateVoteID",
          "type": "uint8"
        },
        {
          "internalType": "bytes32",
          "name": "voteHash",
          "type": "bytes32"
        },
        {
          "internalType": "bytes",
          "name": "trustedAccountSignature",
          "type": "bytes"
        }
      ],
      "name": "voteTo",
      "outputs": [],
      "stateMutability": "nonpayable",
      "type": "function"
    },
    {
      "inputs": [],
      "name": "countVote",
      "outputs": [
        {
          "components": [
            {
              "internalType": "uint8",
              "name": "voteID",
              "type": "uint8"
            },
            {
              "internalType": "uint256",
              "name": "voteCount",
              "type": "uint256"
            }
          ],
          "internalType": "struct VoteLibrary.VoteCounting[]",
          "name": "",
          "type": "tuple[]"
        }
      ],
      "stateMutability": "view",
      "type": "function",
      "constant": true
    }
  ],
  "bytecode": "0x6080604052600060025534801561001557600080fd5b5061149f806100256000396000f3fe608060405234801561001057600080fd5b50600436106100935760003560e01c80636b570dce116100665780636b570dce146100e85780638246482f146100fd57806397fdb02c1461011d578063d127ee3e14610125578063dcad57d11461013857610093565b80631a6cd2fd146100985780631a9c006a146100b65780633bc990db146100cb57806367a3d64e146100d3575b600080fd5b6100a061014b565b6040516100ad91906110e3565b60405180910390f35b6100be61030b565b6040516100ad91906112d8565b6100be610311565b6100db610317565b6040516100ad9190611082565b6100fb6100f6366004610ece565b61032f565b005b61011061010b366004610eb2565b61055e565b6040516100ad919061126a565b6100be6106da565b6100fb610133366004610ce6565b6106e0565b6100fb610146366004610e6c565b610b54565b60608060025467ffffffffffffffff81111561017757634e487b7160e01b600052604160045260246000fd5b6040519080825280602002602001820160405280156101b057816020015b61019d610bfd565b8152602001906001900390816101955790505b50905060005b6002548160ff161015610279576040518060400160405280600360008460016101df9190611390565b60ff1660ff16815260200190815260200160002060020160059054906101000a900460ff1660ff1681526020016003600084600161021d9190611390565b60ff1660ff16815260200190815260200160002060030154815250828260ff168151811061025b57634e487b7160e01b600052603260045260246000fd5b602002602001018190525080806102719061140b565b9150506101b6565b506040516313f3f9d360e01b815273__VoteLibrary___________________________906313f3f9d3906102b1908490600401611096565b60006040518083038186803b1580156102c957600080fd5b505af41580156102dd573d6000803e3d6000fd5b505050506040513d6000823e601f3d908101601f191682016040526103059190810190610d55565b91505090565b60005481565b60025481565b73f3ca7784b075bbc683aaeb18c11e47e5ee3f335081565b6000541580159061034257506000544210155b801561035057506001544211155b6103755760405162461bcd60e51b815260040161036c906111c2565b60405180910390fd5b3360009081526004602052604090205460ff16156103a55760405162461bcd60e51b815260040161036c90611216565b604051630b135d3f60e11b815260009073__VoteLibrary___________________________90631626ba7e906103e390879087908790600401611123565b60206040518083038186803b1580156103fb57600080fd5b505af415801561040f573d6000803e3d6000fd5b505050506040513d601f19601f820116820180604052508101906104339190610e3d565b9050630b135d3f60e11b6001600160e01b03198216146104655760405162461bcd60e51b815260040161036c90611232565b33803b9081156104875760405162461bcd60e51b815260040161036c906111fa565b60ff871660009081526003602081905260408220018054916104a8836113f0565b9091555050336000908152600460209081526040808320805460ff1916600190811790915560ff8b168452600383529281902090517f7f95652222fd11efc024e9aecfae64408ca6dacb2dd66b3f3f78d014cd203d529361050d939083019101611065565b60408051601f1981840301815282825260ff808c1660009081526003602052929092206002015461054d939192650100000000009091041690339061118c565b60405180910390a150505050505050565b610566610c14565b60ff821660009081526003602052604090819020815160a08101909252805482908290610592906113b5565b80601f01602080910402602001604051908101604052809291908181526020018280546105be906113b5565b801561060b5780601f106105e05761010080835404028352916020019161060b565b820191906000526020600020905b8154815290600101906020018083116105ee57829003601f168201915b50505050508152602001600182018054610624906113b5565b80601f0160208091040260200160405190810160405280929190818152602001828054610650906113b5565b801561069d5780601f106106725761010080835404028352916020019161069d565b820191906000526020600020905b81548152906001019060200180831161068057829003601f168201915b5050509183525050600282015464ffffffffff8116602083015265010000000000900460ff16604082015260039091015460609091015292915050565b60015481565b3373f3ca7784b075bbc683aaeb18c11e47e5ee3f335081146107145760405162461bcd60e51b815260040161036c9061124e565b600060028190555b82811015610b4e576040518060a0016040528085858481811061074f57634e487b7160e01b600052603260045260246000fd5b9050602002810190610761919061133b565b61076b90806112ef565b8080601f0160208091040260200160405190810160405280939291908181526020018383808284376000920191909152505050908252506020018585848181106107c557634e487b7160e01b600052603260045260246000fd5b90506020028101906107d7919061133b565b6107e59060208101906112ef565b8080601f01602080910402602001604051908101604052809392919081815260200183838082843760009201919091525050509082525060200185858481811061083f57634e487b7160e01b600052603260045260246000fd5b9050602002810190610851919061133b565b610862906060810190604001610e8d565b64ffffffffff16815260200185858481811061088e57634e487b7160e01b600052603260045260246000fd5b90506020028101906108a0919061133b565b6108b1906080810190606001610eb2565b60ff1681526020018585848181106108d957634e487b7160e01b600052603260045260246000fd5b90506020028101906108eb919061133b565b6080013590526003600086868581811061091557634e487b7160e01b600052603260045260246000fd5b9050602002810190610927919061133b565b610938906080810190606001610eb2565b60ff16815260208082019290925260400160002082518051919261096192849290910190610c4d565b50602082810151805161097a9260018501920190610c4d565b50604082015160028083018054606086015160ff16650100000000000265ff00000000001964ffffffffff90951664ffffffffff1990921691909117939093169290921790915560809092015160039091015580549060006109db836113f0565b91905055507f1343b2b23621700ea5a20ab5f0ff7cd218c44198e10c4437c703eef179442f1d848483818110610a2157634e487b7160e01b600052603260045260246000fd5b9050602002810190610a33919061133b565b610a3d90806112ef565b868685818110610a5d57634e487b7160e01b600052603260045260246000fd5b9050602002810190610a6f919061133b565b610a7d9060208101906112ef565b604051602001610a909493929190611047565b604051602081830303815290604052858584818110610abf57634e487b7160e01b600052603260045260246000fd5b9050602002810190610ad1919061133b565b610ae2906060810190604001610e8d565b868685818110610b0257634e487b7160e01b600052603260045260246000fd5b9050602002810190610b14919061133b565b610b25906080810190606001610eb2565b604051610b3493929190611159565b60405180910390a180610b46816113f0565b91505061071c565b50505050565b3373f3ca7784b075bbc683aaeb18c11e47e5ee3f33508114610b885760405162461bcd60e51b815260040161036c9061124e565b6000541580610b98575060005442105b610bb45760405162461bcd60e51b815260040161036c906111de565b600083905560018290556040517fc20c437dfedbde4291e690e94aea870cd45bdee28bd3d30724d81158e8f93f6690610bf090859085906112e1565b60405180910390a1505050565b604080518082019091526000808252602082015290565b6040518060a001604052806060815260200160608152602001600064ffffffffff168152602001600060ff168152602001600081525090565b828054610c59906113b5565b90600052602060002090601f016020900481019282610c7b5760008555610cc1565b82601f10610c9457805160ff1916838001178555610cc1565b82800160010185558215610cc1579182015b82811115610cc1578251825591602001919060010190610ca6565b50610ccd929150610cd1565b5090565b5b80821115610ccd5760008155600101610cd2565b60008060208385031215610cf8578182fd5b823567ffffffffffffffff80821115610d0f578384fd5b818501915085601f830112610d22578384fd5b813581811115610d30578485fd5b8660208083028501011115610d43578485fd5b60209290920196919550909350505050565b60006020808385031215610d67578182fd5b825167ffffffffffffffff80821115610d7e578384fd5b818501915085601f830112610d91578384fd5b815181811115610da357610da3611441565b610db0848583020161135a565b818152848101908486016040808502870188018b1015610dce578889fd5b8896505b84871015610e2e5780828c031215610de8578889fd5b80518181018181108882111715610e0157610e01611441565b82528251610e0e81611457565b815282890151898201528452600196909601959287019290810190610dd2565b50909998505050505050505050565b600060208284031215610e4e578081fd5b81516001600160e01b031981168114610e65578182fd5b9392505050565b60008060408385031215610e7e578182fd5b50508035926020909101359150565b600060208284031215610e9e578081fd5b813564ffffffffff81168114610e65578182fd5b600060208284031215610ec3578081fd5b8135610e6581611457565b60008060008060608587031215610ee3578182fd5b8435610eee81611457565b935060208501359250604085013567ffffffffffffffff80821115610f11578384fd5b818701915087601f830112610f24578384fd5b813581811115610f32578485fd5b886020828501011115610f43578485fd5b95989497505060200194505050565b60008151808452815b81811015610f7757602081850181015186830182015201610f5b565b81811115610f885782602083870101525b50601f01601f19169290920160200192915050565b805460009060028104600180831680610fb757607f831692505b6020808410821415610fd757634e487b7160e01b86526022600452602486fd5b818015610feb5760018114610ffc57611029565b60ff19861689528489019650611029565b61100588611384565b60005b868110156110215781548b820152908501908301611008565b505084890196505b50505050505092915050565b805160ff168252602090810151910152565b60008486833784820181815283858237909201918252509392505050565b600061107a6110748386610f9d565b84610f9d565b949350505050565b6001600160a01b0391909116815260200190565b602080825282518282018190526000919060409081850190868401855b828110156110d6576110c6848351611035565b92840192908501906001016110b3565b5091979650505050505050565b602080825282518282018190526000919060409081850190868401855b828110156110d657611113848351611035565b9284019290850190600101611100565b60008482526040602083015282604083015282846060840137818301606090810191909152601f909201601f1916010192915050565b60006060825261116c6060830186610f52565b905064ffffffffff8416602083015260ff83166040830152949350505050565b60006060825261119f6060830186610f52565b60ff949094166020830152506001600160a01b0391909116604090910152919050565b602080825260029082015261303760f01b604082015260600190565b602080825260029082015261181b60f11b604082015260600190565b602080825260029082015261031360f41b604082015260600190565b602080825260029082015261060760f31b604082015260600190565b602080825260029082015261303960f01b604082015260600190565b602080825260029082015261303560f01b604082015260600190565b600060208252825160a0602084015261128660c0840182610f52565b90506020840151601f198483030160408501526112a38282610f52565b91505064ffffffffff604085015116606084015260ff6060850151166080840152608084015160a08401528091505092915050565b90815260200190565b918252602082015260400190565b6000808335601e19843603018112611305578283fd5b83018035915067ffffffffffffffff82111561131f578283fd5b60200191503681900382131561133457600080fd5b9250929050565b60008235609e19833603018112611350578182fd5b9190910192915050565b60405181810167ffffffffffffffff8111828210171561137c5761137c611441565b604052919050565b60009081526020902090565b600060ff821660ff84168060ff038211156113ad576113ad61142b565b019392505050565b6002810460018216806113c957607f821691505b602082108114156113ea57634e487b7160e01b600052602260045260246000fd5b50919050565b60006000198214156114045761140461142b565b5060010190565b600060ff821660ff8114156114225761142261142b565b60010192915050565b634e487b7160e01b600052601160045260246000fd5b634e487b7160e01b600052604160045260246000fd5b60ff8116811461146657600080fd5b5056fea2646970667358221220492328d4168c2031e55425558212c4d8defb92e93d7d0fb1b7656f29b3d7053a64736f6c63430008000033",
  "immutableReferences": {},
  "source": "// SPDX-License-Identifier: MIT\r\n\r\n//pragma experimental ABIEncoderV2;\r\n\r\npragma solidity ^0.8.0;\r\n\r\nlibrary VoteLibrary{\r\n    // Constants\r\n    address constant public TRUSTED_ACCOUNT = 0xF3ca7784b075Bbc683Aaeb18C11E47E5ee3f3350;\r\n    bytes4 constant public MAGIC_VALUE = 0x1626ba7e;\r\n\r\n    // Structs\r\n    struct VoteCounting{\r\n        uint8 voteID;\r\n        uint voteCount;\r\n    }\r\n\r\n    // Functions\r\n    function voteCounter(VoteCounting[] calldata countResult) external view returns(VoteCounting[] memory) {\r\n        // Sort the vote counts\r\n        VoteCounting[] memory sortedCountResult = new VoteCounting[](countResult.length);// Calldata array is read-only. So we need to use another array instead countResult!\r\n        for (uint i = 0 ; i < countResult.length ; i++) {\r\n            sortedCountResult[i] = countResult[i];\r\n        }\r\n        VoteCounting memory tempCounting;\r\n        for (uint i = 0 ; i < sortedCountResult.length ; i++) {\r\n            for (uint j = i + 1 ; j < sortedCountResult.length ; j++) {\r\n                if (sortedCountResult[i].voteCount < sortedCountResult[j].voteCount) {\r\n                    tempCounting = sortedCountResult[i];\r\n                    sortedCountResult[i] = sortedCountResult[j];\r\n                    sortedCountResult[j] = VoteCounting(tempCounting.voteID, tempCounting.voteCount);\r\n                }\r\n            }\r\n        }\r\n        return sortedCountResult;\r\n    }\r\n    \r\n    function isValidSignature(bytes32 hash, bytes calldata signature) external view returns (bytes4) {\r\n        address signer = recoverSignature(hash, signature);\r\n        if (signer == TRUSTED_ACCOUNT) {\r\n            return 0x1626ba7e;\r\n        }else{\r\n            return 0xffffffff;\r\n        }\r\n    }\r\n\r\n    function recoverSignature(bytes32 hash, bytes memory signature) public pure returns(address) {\r\n        // Is signature an Ethereum signature\r\n        require(signature.length == 65 , \"01\");//01: Signature length is not valid!\r\n\r\n        // Validate the provided Ethereum signature (signature)\r\n        uint8 v = uint8( signature[ 64 ] );\r\n        bytes32 r;\r\n        bytes32 s;\r\n        assembly {\r\n            r := mload( add( signature , 0x20 ) )\r\n            s := mload( add( signature , 0x40 ) )\r\n        }\r\n        require(uint256( s ) <= 0x7FFFFFFFFFFFFFFFFFFFFFFFFFFFFFFF5D576E7357A4501DDFE92F46681B20A0,\r\n                    \"02\");// 02: The 's' value of the signature is not valid!\r\n        require(v == 27 || v == 28, \"03\");// 03: The 'v' value of the signature is not valid!\r\n\r\n        // Recover the signer's address from the signature\r\n        address signer = ecrecover(hash, v, r, s);\r\n\r\n        // Validate the structure of the recovered address\r\n        require( signer != address( 0x0 ), \"04\");// 04: The signer address is not valid!\r\n        return signer;\r\n    }\r\n}\r\n\r\n\r\ncontract VoteSystem{\r\n    // Constants\r\n    address constant public TRUSTED_ACCOUNT = 0xF3ca7784b075Bbc683Aaeb18C11E47E5ee3f3350; // This address can change for each project using this contract!\r\n    uint public startOfVotePeriod;\r\n    uint public endOfVotePeriod;\r\n    uint public candidateCounter=0;\r\n\r\n    // Structs\r\n    struct Candidate{\r\n        bytes firstname;\r\n        bytes lastname;\r\n        uint40 id;\r\n        uint8 voteID;\r\n        uint voteCount;\r\n    }\r\n\r\n    // Events\r\n    event NewCandidateAdded(bytes fullname, uint40 id, uint8 voteID);\r\n    event VotePeriodUpdate(uint startAt, uint endAt);\r\n    event NewVoteTo(bytes votedCandidate, uint candidatesVoteID, address voter);\r\n\r\n    // Mappings\r\n    mapping(uint8 => Candidate) private candidateList;\r\n    mapping(address => bool) private revoteCheck;\r\n\r\n    // Modifiers\r\n    modifier onlyTrustedAccount(address accountAddress) {\r\n        require( TRUSTED_ACCOUNT == accountAddress, \"05\" );// 05: Just the trusted account has access to do this task!\r\n        _;\r\n    }\r\n\r\n    // Functions\r\n    function addCandidateList(Candidate[] calldata listOfCandidates) external onlyTrustedAccount(msg.sender) {\r\n        candidateCounter = 0;\r\n        for (uint i = 0 ; i < listOfCandidates.length ; i++) {\r\n            candidateList[listOfCandidates[i].voteID] = Candidate(listOfCandidates[i].firstname, listOfCandidates[i].lastname, listOfCandidates[i].id, listOfCandidates[i].voteID, listOfCandidates[i].voteCount);\r\n            candidateCounter++;\r\n            emit NewCandidateAdded(abi.encodePacked(listOfCandidates[i].firstname, listOfCandidates[i].lastname), listOfCandidates[i].id, listOfCandidates[i].voteID);\r\n        }\r\n    }\r\n\r\n    function viewList(uint8 candidateVoteID) external view returns(Candidate memory) {\r\n        return (candidateList[candidateVoteID]);\r\n    }\r\n\r\n    function setVotePeriod(uint startTime, uint endTime) external onlyTrustedAccount(msg.sender) {\r\n        // Ensures that this function is executed before the voting period starts\r\n        require(startOfVotePeriod == 0 || block.timestamp < startOfVotePeriod, \"06\");// 06: Reset the vote period is not allowed!\r\n        \r\n        // Sets the start and end times for voting\r\n        startOfVotePeriod = startTime;\r\n        endOfVotePeriod = endTime;\r\n        emit VotePeriodUpdate(startOfVotePeriod, endOfVotePeriod);\r\n    }\r\n\r\n    function voteTo(uint8 candidateVoteID, bytes32 voteHash, bytes calldata trustedAccountSignature) external {\r\n        // Ensures that this function only executed during the voting period\r\n        require(startOfVotePeriod!= 0 && block.timestamp >= startOfVotePeriod && block.timestamp <= endOfVotePeriod, \"07\");// 07: Out of vote period!    \r\n        \r\n        //Validate revote\r\n        require(!revoteCheck[ msg.sender ], \"08\");// 08: Revoting is not allowed!\r\n        \r\n        //Validate signature\r\n        bytes4 validationResult = VoteLibrary.isValidSignature(voteHash, trustedAccountSignature);\r\n        require(validationResult == 0x1626ba7e, \"09\");// 09: You are not an eligible voter!\r\n        \r\n        //Count the vote\r\n        uint codeSize;\r\n        address msgSender = msg.sender;\r\n        assembly {\r\n            codeSize := extcodesize( msgSender )\r\n        }\r\n        require(codeSize == 0, \"10\");// 10: Smart contract is not allowed to vote!\r\n        candidateList[candidateVoteID].voteCount++;\r\n        revoteCheck[msg.sender] = true;\r\n        emit NewVoteTo(abi.encodePacked(candidateList[candidateVoteID].firstname, candidateList[candidateVoteID].lastname),candidateList[candidateVoteID].voteID, msg.sender);\r\n        /*if (codeSize == 0) {\r\n            candidateList[candidateVoteID].voteCount++;\r\n            revoteCheck[msg.sender] = true;\r\n            emit NewVoteTo(abi.encodePacked(candidateList[candidateVoteID].firstname, candidateList[candidateVoteID].lastname),candidateList[candidateVoteID].voteID, msg.sender);\r\n\r\n        }else{\r\n\r\n            revert( \" 10 \" );\r\n            // 10: Smart contract is not allowed to vote!\r\n\r\n        }*/\r\n    }\r\n\r\n    function countVote() external view returns(VoteLibrary.VoteCounting[] memory) {\r\n        // Instantiation of an array with type of the library's struct\r\n        VoteLibrary.VoteCounting[] memory voteCountingArray;\r\n        voteCountingArray = new VoteLibrary.VoteCounting[](candidateCounter);\r\n        for (uint8 i = 0 ; i < candidateCounter ; i++) {\r\n            voteCountingArray[i] = VoteLibrary.VoteCounting(candidateList[i + 1].voteID, candidateList[i + 1].voteCount);\r\n        }\r\n        return VoteLibrary.voteCounter(voteCountingArray);\r\n    }\r\n}",
  "sourcePath": "E:\\smartContract\\contracts\\votingSystem.sol",
  "compiler": {
    "name": "solc",
    "version": "0.8.0+commit.c7dfd78e.Emscripten.clang"
  },
  "schemaVersion": "3.4.16",
  "updatedAt": "2024-06-09T14:56:32.410Z",
  "networkType": "ethereum",
  "devdoc": {
    "kind": "dev",
    "methods": {},
    "version": 1
  },
  "userdoc": {
    "kind": "user",
    "methods": {},
    "version": 1
  }
}