{
  "contractName": "voteSystem",
  "abi": [
    {
      "inputs": [
        {
          "components": [
            {
              "internalType": "bytes",
              "name": "firstname",
              "type": "bytes"
            },
            {
              "internalType": "bytes",
              "name": "lastname",
              "type": "bytes"
            },
            {
              "internalType": "uint40",
              "name": "id",
              "type": "uint40"
            },
            {
              "internalType": "uint8",
              "name": "voteID",
              "type": "uint8"
            }
          ],
          "internalType": "struct voteSystem.candidate[]",
          "name": "listOfCandidates",
          "type": "tuple[]"
        }
      ],
      "payable": false,
      "stateMutability": "nonpayable",
      "type": "constructor"
    },
    {
      "anonymous": false,
      "inputs": [
        {
          "indexed": false,
          "internalType": "string",
          "name": "fullname",
          "type": "string"
        },
        {
          "indexed": false,
          "internalType": "uint40",
          "name": "id",
          "type": "uint40"
        },
        {
          "indexed": false,
          "internalType": "uint8",
          "name": "voteID",
          "type": "uint8"
        }
      ],
      "name": "newCandidateAdded",
      "type": "event"
    },
    {
      "constant": true,
      "inputs": [],
      "name": "trustedAccount",
      "outputs": [
        {
          "internalType": "address",
          "name": "",
          "type": "address"
        }
      ],
      "payable": false,
      "stateMutability": "view",
      "type": "function"
    },
    {
      "constant": true,
      "inputs": [
        {
          "internalType": "uint8",
          "name": "candidateVoteID",
          "type": "uint8"
        }
      ],
      "name": "viewList",
      "outputs": [
        {
          "components": [
            {
              "internalType": "bytes",
              "name": "firstname",
              "type": "bytes"
            },
            {
              "internalType": "bytes",
              "name": "lastname",
              "type": "bytes"
            },
            {
              "internalType": "uint40",
              "name": "id",
              "type": "uint40"
            },
            {
              "internalType": "uint8",
              "name": "voteID",
              "type": "uint8"
            }
          ],
          "internalType": "struct voteSystem.candidate",
          "name": "",
          "type": "tuple"
        }
      ],
      "payable": false,
      "stateMutability": "view",
      "type": "function"
    }
  ],
  "bytecode": "0x60806040523480156200001157600080fd5b5060405162000d6738038062000d6783398181016040526200003791908101906200054f565b73f3ca7784b075bbc683aaeb18c11e47e5ee3f335073ffffffffffffffffffffffffffffffffffffffff163273ffffffffffffffffffffffffffffffffffffffff1614620000bc576040517f08c379a0000000000000000000000000000000000000000000000000000000008152600401620000b39062000702565b60405180910390fd5b60008090505b8151811015620002e0576040518060800160405280838381518110620000e457fe5b60200260200101516000015181526020018383815181106200010257fe5b60200260200101516020015181526020018383815181106200012057fe5b60200260200101516040015164ffffffffff1681526020018383815181106200014557fe5b60200260200101516060015160ff168152506000808484815181106200016757fe5b60200260200101516060015160ff1660ff1681526020019081526020016000206000820151816000019080519060200190620001a5929190620002e8565b506020820151816001019080519060200190620001c4929190620002e8565b5060408201518160020160006101000a81548164ffffffffff021916908364ffffffffff16021790555060608201518160020160056101000a81548160ff021916908360ff1602179055509050507f269847ba75c4426852af4d6cbb2f2ec004448bd39c63cd3e7a3070e749dc10268282815181106200024057fe5b6020026020010151600001518383815181106200025957fe5b6020026020010151602001516040516020016200027892919062000696565b6040516020818303038152906040528383815181106200029457fe5b602002602001015160400151848481518110620002ad57fe5b602002602001015160600151604051620002ca93929190620006be565b60405180910390a18080600101915050620000c2565b505062000873565b828054600181600116156101000203166002900490600052602060002090601f016020900481019282601f106200032b57805160ff19168380011785556200035c565b828001600101855582156200035c579182015b828111156200035b5782518255916020019190600101906200033e565b5b5090506200036b91906200036f565b5090565b6200039491905b808211156200039057600081600090555060010162000376565b5090565b90565b600082601f830112620003a957600080fd5b8151620003c0620003ba8262000752565b62000724565b9150818183526020840193506020810190508360005b838110156200040a5781518601620003ef888262000470565b845260208401935060208301925050600181019050620003d6565b5050505092915050565b600082601f8301126200042657600080fd5b81516200043d62000437826200077b565b62000724565b915080825260208301602083018583830111156200045a57600080fd5b62000467838284620007f8565b50505092915050565b6000608082840312156200048357600080fd5b6200048f608062000724565b9050600082015167ffffffffffffffff811115620004ac57600080fd5b620004ba8482850162000414565b600083015250602082015167ffffffffffffffff811115620004db57600080fd5b620004e98482850162000414565b6020830152506040620004ff8482850162000521565b6040830152506060620005158482850162000538565b60608301525092915050565b60008151905062000532816200083f565b92915050565b600081519050620005498162000859565b92915050565b6000602082840312156200056257600080fd5b600082015167ffffffffffffffff8111156200057d57600080fd5b6200058b8482850162000397565b91505092915050565b6000620005a182620007a8565b620005ad8185620007be565b9350620005bf818560208601620007f8565b80840191505092915050565b6000620005d882620007b3565b620005e48185620007c9565b9350620005f6818560208601620007f8565b62000601816200082e565b840191505092915050565b60006200061b603083620007c9565b91507f4a757374207468652074727573746564206163636f756e742063616e2064657060008301527f6c6f7920766f74652073797374656d21000000000000000000000000000000006020830152604082019050919050565b6200067f81620007da565b82525050565b6200069081620007eb565b82525050565b6000620006a4828562000594565b9150620006b2828462000594565b91508190509392505050565b60006060820190508181036000830152620006da8186620005cb565b9050620006eb602083018562000674565b620006fa604083018462000685565b949350505050565b600060208201905081810360008301526200071d816200060c565b9050919050565b6000604051905081810181811067ffffffffffffffff821117156200074857600080fd5b8060405250919050565b600067ffffffffffffffff8211156200076a57600080fd5b602082029050602081019050919050565b600067ffffffffffffffff8211156200079357600080fd5b601f19601f8301169050602081019050919050565b600081519050919050565b600081519050919050565b600081905092915050565b600082825260208201905092915050565b600064ffffffffff82169050919050565b600060ff82169050919050565b60005b8381101562000818578082015181840152602081019050620007fb565b8381111562000828576000848401525b50505050565b6000601f19601f8301169050919050565b6200084a81620007da565b81146200085657600080fd5b50565b6200086481620007eb565b81146200087057600080fd5b50565b6104e480620008836000396000f3fe608060405234801561001057600080fd5b50600436106100365760003560e01c806336dd63181461003b5780638246482f14610059575b600080fd5b610043610089565b604051610050919061039d565b60405180910390f35b610073600480360361006e91908101906102a4565b6100a1565b60405161008091906103b8565b60405180910390f35b73f3ca7784b075bbc683aaeb18c11e47e5ee3f335081565b6100a961025d565b6000808360ff1660ff168152602001908152602001600020604051806080016040529081600082018054600181600116156101000203166002900480601f0160208091040260200160405190810160405280929190818152602001828054600181600116156101000203166002900480156101655780601f1061013a57610100808354040283529160200191610165565b820191906000526020600020905b81548152906001019060200180831161014857829003601f168201915b50505050508152602001600182018054600181600116156101000203166002900480601f0160208091040260200160405190810160405280929190818152602001828054600181600116156101000203166002900480156102075780601f106101dc57610100808354040283529160200191610207565b820191906000526020600020905b8154815290600101906020018083116101ea57829003601f168201915b505050505081526020016002820160009054906101000a900464ffffffffff1664ffffffffff1664ffffffffff1681526020016002820160059054906101000a900460ff1660ff1660ff16815250509050919050565b60405180608001604052806060815260200160608152602001600064ffffffffff168152602001600060ff1681525090565b60008135905061029e8161048a565b92915050565b6000602082840312156102b657600080fd5b60006102c48482850161028f565b91505092915050565b6102d6816103f6565b82525050565b60006102e7826103da565b6102f181856103e5565b9350610301818560208601610446565b61030a81610479565b840191505092915050565b6000608083016000830151848203600086015261033282826102dc565b9150506020830151848203602086015261034c82826102dc565b9150506040830151610361604086018261037f565b506060830151610374606086018261038e565b508091505092915050565b61038881610428565b82525050565b61039781610439565b82525050565b60006020820190506103b260008301846102cd565b92915050565b600060208201905081810360008301526103d28184610315565b905092915050565b600081519050919050565b600082825260208201905092915050565b600061040182610408565b9050919050565b600073ffffffffffffffffffffffffffffffffffffffff82169050919050565b600064ffffffffff82169050919050565b600060ff82169050919050565b60005b83811015610464578082015181840152602081019050610449565b83811115610473576000848401525b50505050565b6000601f19601f8301169050919050565b61049381610439565b811461049e57600080fd5b5056fea365627a7a723158204398bb31c0bd8cf2e6fb97cf9e3be2eda5ecd5fe3e16f4e2f7286f6c0ff20b7f6c6578706572696d656e74616cf564736f6c63430005100040",
  "source": "// SPDX-License-Identifier: MIT`\r\n\r\npragma experimental ABIEncoderV2;\r\n\r\npragma solidity ^0.5.12;\r\n\r\nlibrary voteLibrary{\r\n\r\n    \r\n\r\n}\r\n\r\ncontract voteSystem{\r\n\r\n    address constant public trustedAccount = 0xF3ca7784b075Bbc683Aaeb18C11E47E5ee3f3350; //This address can change for each project using this contract!\r\n\r\n    event newCandidateAdded( string fullname , uint40 id , uint8 voteID );\r\n\r\n    struct candidate{\r\n\r\n        bytes firstname;\r\n        bytes lastname;\r\n        uint40 id;\r\n        uint8 voteID;\r\n\r\n    }\r\n\r\n    mapping( uint8 => candidate ) private candidateList;\r\n\r\n    constructor( candidate[] memory listOfCandidates ) public {\r\n\r\n        require( tx.origin == trustedAccount , \"Just the trusted account can deploy vote system!\");\r\n        for ( uint i = 0 ; i < listOfCandidates.length ; i++ ){\r\n\r\n            candidateList[listOfCandidates[i].voteID] = candidate( listOfCandidates[i].firstname , listOfCandidates[i].lastname , listOfCandidates[i].id , listOfCandidates[i].voteID );\r\n            emit newCandidateAdded( string( abi.encodePacked( listOfCandidates[i].firstname , listOfCandidates[i].lastname ) ) , listOfCandidates[i].id , listOfCandidates[i].voteID );\r\n\r\n        }\r\n\r\n    }\r\n\r\n    function viewList( uint8 candidateVoteID) external view returns( candidate memory ){\r\n\r\n        return (candidateList[ candidateVoteID ]);\r\n\r\n    }\r\n\r\n}",
  "sourcePath": "E:\\smartContract\\contracts\\votingSystem.sol",
  "compiler": {
    "name": "solc",
    "version": "0.5.16+commit.9c3226ce.Emscripten.clang"
  },
  "schemaVersion": "3.4.16",
  "updatedAt": "2024-06-03T15:03:18.060Z",
  "networkType": "ethereum",
  "devdoc": {
    "methods": {}
  },
  "userdoc": {
    "methods": {}
  }
}