{
  "contractName": "voteLibrary",
  "abi": [
    {
      "inputs": [],
      "name": "magicValue",
      "outputs": [
        {
          "internalType": "bytes4",
          "name": "",
          "type": "bytes4"
        }
      ],
      "stateMutability": "view",
      "type": "function",
      "constant": true
    },
    {
      "inputs": [],
      "name": "trustedAccount",
      "outputs": [
        {
          "internalType": "address",
          "name": "",
          "type": "address"
        }
      ],
      "stateMutability": "view",
      "type": "function",
      "constant": true
    },
    {
      "inputs": [
        {
          "components": [
            {
              "internalType": "uint8",
              "name": "voteID",
              "type": "uint8"
            },
            {
              "internalType": "uint256",
              "name": "voteCount",
              "type": "uint256"
            }
          ],
          "internalType": "struct voteLibrary.voteCounting[]",
          "name": "countResult",
          "type": "tuple[]"
        }
      ],
      "name": "voteCounter",
      "outputs": [
        {
          "components": [
            {
              "internalType": "uint8",
              "name": "voteID",
              "type": "uint8"
            },
            {
              "internalType": "uint256",
              "name": "voteCount",
              "type": "uint256"
            }
          ],
          "internalType": "struct voteLibrary.voteCounting[]",
          "name": "",
          "type": "tuple[]"
        }
      ],
      "stateMutability": "view",
      "type": "function",
      "constant": true
    },
    {
      "inputs": [
        {
          "internalType": "bytes32",
          "name": "_hash",
          "type": "bytes32"
        },
        {
          "internalType": "bytes",
          "name": "_signature",
          "type": "bytes"
        }
      ],
      "name": "isValidSignature",
      "outputs": [
        {
          "internalType": "bytes4",
          "name": "",
          "type": "bytes4"
        }
      ],
      "stateMutability": "view",
      "type": "function",
      "constant": true
    },
    {
      "inputs": [
        {
          "internalType": "bytes32",
          "name": "_hash",
          "type": "bytes32"
        },
        {
          "internalType": "bytes",
          "name": "_signature",
          "type": "bytes"
        }
      ],
      "name": "recoverSignature",
      "outputs": [
        {
          "internalType": "address",
          "name": "",
          "type": "address"
        }
      ],
      "stateMutability": "pure",
      "type": "function",
      "constant": true
    }
  ],
  "bytecode": "0x61091861003a600b82828239805160001a60731461002d57634e487b7160e01b600052600060045260246000fd5b30600052607381538281f3fe73000000000000000000000000000000000000000030146080604052600436106100615760003560e01c80631626ba7e146100665780631a8c644a1461008f57806336dd6318146100af5780637621fd67146100c4578063a4b34557146100d7575b600080fd5b6100796100743660046105de565b6100df565b60405161008691906107ce565b60405180910390f35b6100a261009d36600461056e565b61016d565b604051610086919061075e565b6100b76103d7565b604051610086919061074a565b6100b76100d2366004610655565b6103ef565b61007961054c565b6000806101228585858080601f0160208091040260200160405190810160405280939291908181526020018383808284376000920191909152506103ef92505050565b90506001600160a01b03811673f3ca7784b075bbc683aaeb18c11e47e5ee3f335014156101595750630b135d3f60e11b9050610166565b506001600160e01b031990505b9392505050565b606060008267ffffffffffffffff81111561019857634e487b7160e01b600052604160045260246000fd5b6040519080825280602002602001820160405280156101d157816020015b6101be610557565b8152602001906001900390816101b65790505b50905060005b83811015610253578484828181106101ff57634e487b7160e01b600052603260045260246000fd5b90506040020180360381019061021591906106ee565b82828151811061023557634e487b7160e01b600052603260045260246000fd5b6020026020010181905250808061024b9061089b565b9150506101d7565b5061025c610557565b60005b82518110156103cd576000610275826001610883565b90505b83518110156103ba578381815181106102a157634e487b7160e01b600052603260045260246000fd5b6020026020010151602001518483815181106102cd57634e487b7160e01b600052603260045260246000fd5b60200260200101516020015110156103a8578382815181106102ff57634e487b7160e01b600052603260045260246000fd5b6020026020010151925083818151811061032957634e487b7160e01b600052603260045260246000fd5b602002602001015184838151811061035157634e487b7160e01b600052603260045260246000fd5b60200260200101819052506040518060400160405280846000015160ff168152602001846020015181525084828151811061039c57634e487b7160e01b600052603260045260246000fd5b60200260200101819052505b806103b28161089b565b915050610278565b50806103c58161089b565b91505061025f565b5090949350505050565b73f3ca7784b075bbc683aaeb18c11e47e5ee3f335081565b6000815160411461041b5760405162461bcd60e51b8152600401610412906107e3565b60405180910390fd5b60008260408151811061043e57634e487b7160e01b600052603260045260246000fd5b0160209081015190840151604085015160f89290921c9250907f7fffffffffffffffffffffffffffffff5d576e7357a4501ddfe92f46681b20a08111156104975760405162461bcd60e51b81526004016104129061081d565b8260ff16601b14806104ac57508260ff16601c145b6104c85760405162461bcd60e51b8152600401610412906107ff565b6000600187858585604051600081526020016040526040516104ed94939291906107b0565b6020604051602081039080840390855afa15801561050f573d6000803e3d6000fd5b5050604051601f1901519150506001600160a01b0381166105425760405162461bcd60e51b81526004016104129061083b565b9695505050505050565b630b135d3f60e11b81565b604080518082019091526000808252602082015290565b60008060208385031215610580578182fd5b823567ffffffffffffffff80821115610597578384fd5b818501915085601f8301126105aa578384fd5b8135818111156105b8578485fd5b8660206040830285010111156105cc578485fd5b60209290920196919550909350505050565b6000806000604084860312156105f2578081fd5b83359250602084013567ffffffffffffffff80821115610610578283fd5b818601915086601f830112610623578283fd5b813581811115610631578384fd5b876020828501011115610642578384fd5b6020830194508093505050509250925092565b60008060408385031215610667578182fd5b8235915060208084013567ffffffffffffffff80821115610686578384fd5b818601915086601f830112610699578384fd5b8135818111156106ab576106ab6108cc565b6106bd601f8201601f19168501610859565b915080825287848285010111156106d2578485fd5b8084840185840137810190920192909252919491935090915050565b6000604082840312156106ff578081fd5b6040516040810181811067ffffffffffffffff82111715610722576107226108cc565b604052823560ff81168114610735578283fd5b81526020928301359281019290925250919050565b6001600160a01b0391909116815260200190565b602080825282518282018190526000919060409081850190868401855b828110156107a3578151805160ff16855286015186850152928401929085019060010161077b565b5091979650505050505050565b93845260ff9290921660208401526040830152606082015260800190565b6001600160e01b031991909116815260200190565b602080825260029082015261303160f01b604082015260600190565b6020808252600490820152630101819960e51b604082015260600190565b6020808252600490820152630101819160e51b604082015260600190565b602080825260049082015263010181a160e51b604082015260600190565b60405181810167ffffffffffffffff8111828210171561087b5761087b6108cc565b604052919050565b60008219821115610896576108966108b6565b500190565b60006000198214156108af576108af6108b6565b5060010190565b634e487b7160e01b600052601160045260246000fd5b634e487b7160e01b600052604160045260246000fdfea2646970667358221220f9bf66ba7b1f096a6915d957145f2b2b9081bf5c7b31b48d533209fc2a29985c64736f6c63430008000033",
  "immutableReferences": {},
  "source": "// SPDX-License-Identifier: MIT\r\n\r\n//pragma experimental ABIEncoderV2;\r\n\r\npragma solidity ^0.8.0;\r\n\r\nlibrary voteLibrary{\r\n\r\n    address constant public trustedAccount = 0xF3ca7784b075Bbc683Aaeb18C11E47E5ee3f3350;\r\n    bytes4 constant public magicValue = 0x1626ba7e;\r\n\r\n    struct voteCounting{\r\n\r\n        uint8 voteID;\r\n        uint voteCount;\r\n\r\n    }\r\n\r\n    function voteCounter( voteCounting[] calldata countResult ) external view returns( voteCounting[] memory ) {\r\n\r\n        voteCounting[] memory sortedCountResult = new voteCounting[]( countResult.length );//Calldata array is read-only. So we need to declare another array!\r\n\r\n        for( uint i = 0 ; i < countResult.length ; i++ ){\r\n\r\n            sortedCountResult[ i ] = countResult[ i ];\r\n\r\n        }\r\n\r\n        voteCounting memory tempCounting;\r\n\r\n        for( uint i = 0 ; i < sortedCountResult.length ; i++ ){\r\n\r\n            for( uint j = i + 1 ; j < sortedCountResult.length ; j++){\r\n\r\n                if( sortedCountResult[ i ].voteCount < sortedCountResult[ j ].voteCount ){\r\n\r\n                    tempCounting = sortedCountResult[ i ];\r\n                    sortedCountResult[ i ] = sortedCountResult[ j ];\r\n                    sortedCountResult[ j ] = voteCounting( tempCounting.voteID , tempCounting.voteCount );\r\n\r\n                }\r\n\r\n            }\r\n\r\n        }\r\n\r\n        return sortedCountResult;\r\n\r\n    }\r\n\r\n    function isValidSignature( bytes32 _hash , bytes calldata _signature ) external view returns ( bytes4 ){\r\n\r\n        address signer = recoverSignature( _hash , _signature );\r\n\r\n        if( signer == trustedAccount ){\r\n\r\n            return 0x1626ba7e;\r\n\r\n        }else{\r\n\r\n            return 0xffffffff;\r\n\r\n        }\r\n\r\n    }\r\n\r\n    function recoverSignature( bytes32 _hash , bytes memory _signature ) public pure returns( address ){\r\n\r\n        require( _signature.length == 65 , \"01\" );\r\n        //01: Signature length is not valid!\r\n\r\n        uint8 v = uint8( _signature[ 64 ] );\r\n        bytes32 r;\r\n        bytes32 s;\r\n\r\n        assembly {\r\n\r\n            r := mload( add( _signature , 0x20 ) )\r\n            s := mload( add( _signature , 0x40 ) )\r\n\r\n        }\r\n\r\n        require( uint256( s ) <= 0x7FFFFFFFFFFFFFFFFFFFFFFFFFFFFFFF5D576E7357A4501DDFE92F46681B20A0 ,\r\n                    \" 02 \" );\r\n        //02: The 's' value of the signature is not valid!\r\n        require( v == 27 || v == 28 , \" 03 \" );\r\n        //03: The 'v' value of the signature is not valid!\r\n\r\n        address signer = ecrecover( _hash , v , r , s );\r\n\r\n        require( signer != address( 0x0 ) , \" 04 \" );\r\n        //04: The signer address is not valid!\r\n\r\n        return signer;\r\n\r\n    }\r\n\r\n}\r\n\r\ncontract voteSystem{\r\n\r\n    address constant public trustedAccount = 0xF3ca7784b075Bbc683Aaeb18C11E47E5ee3f3350; //This address can change for each project using this contract!\r\n    uint public startOfVotePeriod;\r\n    uint public endOfVotePeriod;\r\n    uint public candidateCounter=0;\r\n\r\n    struct candidate{\r\n\r\n        bytes firstname;\r\n        bytes lastname;\r\n        uint40 id;\r\n        uint8 voteID;\r\n        uint voteCount;\r\n\r\n    }\r\n\r\n    event newCandidateAdded( bytes fullname , uint40 id , uint8 voteID );\r\n    event votePeriodUpdate( uint startAt , uint endAt );\r\n    event newVoteTo( bytes votedCandidate , uint candidatesVoteID , address voter );\r\n\r\n    mapping( uint8 => candidate ) private candidateList;\r\n    mapping( address => bool ) private revoteCheck;\r\n\r\n\r\n    modifier onlyTrustedAccount( address accountAddress ) {\r\n\r\n        require( trustedAccount == accountAddress , \"05\" );\r\n        //05: Just the trusted account has access to do this task!\r\n        _;\r\n\r\n    }\r\n\r\n    function addCandidateList( candidate[] calldata listOfCandidates ) external onlyTrustedAccount(msg.sender) {\r\n\r\n        candidateCounter = 0;\r\n\r\n        for ( uint i = 0 ; i < listOfCandidates.length ; i++ ){\r\n\r\n            candidateList[listOfCandidates[i].voteID] = candidate( listOfCandidates[i].firstname , listOfCandidates[i].lastname , listOfCandidates[i].id , listOfCandidates[i].voteID , listOfCandidates[i].voteCount );\r\n            candidateCounter++;\r\n            emit newCandidateAdded( abi.encodePacked( listOfCandidates[i].firstname , listOfCandidates[i].lastname ) , listOfCandidates[i].id , listOfCandidates[i].voteID );\r\n\r\n        }\r\n\r\n    }\r\n\r\n    function viewList( uint8 candidateVoteID) external view returns( candidate memory ){\r\n\r\n        return ( candidateList[ candidateVoteID ] );\r\n\r\n    }\r\n\r\n    function setVotePeriod( uint startTime , uint endTime ) external onlyTrustedAccount( msg.sender ) {\r\n\r\n        require( startOfVotePeriod == 0 || block.timestamp < startOfVotePeriod , \"06\" );\r\n        //06: Reset the vote period is not allowed!\r\n        \r\n        startOfVotePeriod = startTime;\r\n        endOfVotePeriod = endTime;\r\n\r\n        emit votePeriodUpdate( startOfVotePeriod , endOfVotePeriod );\r\n\r\n    }\r\n\r\n    function voteTo( uint8 candidateVoteID , bytes32 voteHash , bytes calldata trustedAccountSignature ) external {\r\n\r\n        require( startOfVotePeriod!= 0 && block.timestamp >= startOfVotePeriod && block.timestamp <= endOfVotePeriod , \" 07 \" );\r\n        //07: Out of vote period!\r\n        \r\n        //Validating revote\r\n        require( !revoteCheck[ msg.sender ] , \" 08 \" );\r\n        //08: Revoting is not allowed!\r\n\r\n        //Validating signature\r\n        bytes4 validationResult = voteLibrary.isValidSignature( voteHash , trustedAccountSignature );\r\n        require( validationResult == 0x1626ba7e , \" 09 \" );\r\n        //09: You are not an eligible voter!\r\n\r\n        //Counting the vote\r\n        uint codeSize;\r\n        address msgSender = msg.sender;\r\n\r\n        assembly {\r\n\r\n            codeSize := extcodesize( msgSender )\r\n\r\n        }\r\n\r\n        if( codeSize == 0){\r\n\r\n            candidateList[ candidateVoteID ].voteCount++;\r\n            revoteCheck[ msg.sender ] = true;\r\n\r\n            emit newVoteTo( abi.encodePacked( candidateList[ candidateVoteID ].firstname , candidateList[ candidateVoteID ].lastname ) ,\r\n                            candidateList[ candidateVoteID ].voteID , msg.sender );\r\n\r\n        }else{\r\n\r\n            revert( \" 10 \" );\r\n            //10: Smart contract is not allowed to vote!\r\n\r\n        }\r\n\r\n    }\r\n\r\n    function countVote() external view returns( voteLibrary.voteCounting[] memory ){\r\n\r\n        voteLibrary.voteCounting[] memory voteCountingArray;\r\n        voteCountingArray = new voteLibrary.voteCounting[]( candidateCounter );\r\n\r\n        for( uint8 i = 0 ; i < candidateCounter ; i++ ){\r\n\r\n            voteCountingArray[ i ] = voteLibrary.voteCounting( candidateList[ i + 1 ].voteID , candidateList[ i + 1 ].voteCount );\r\n\r\n        }\r\n\r\n        return voteLibrary.voteCounter( voteCountingArray );\r\n    }\r\n\r\n}",
  "sourcePath": "E:\\smartContract\\contracts\\votingSystem.sol",
  "compiler": {
    "name": "solc",
    "version": "0.8.0+commit.c7dfd78e.Emscripten.clang"
  },
  "schemaVersion": "3.4.16",
  "updatedAt": "2024-06-08T16:45:25.886Z",
  "networkType": "ethereum",
  "devdoc": {
    "kind": "dev",
    "methods": {},
    "version": 1
  },
  "userdoc": {
    "kind": "user",
    "methods": {},
    "version": 1
  }
}