{
  "contractName": "voteSystem",
  "abi": [
    {
      "anonymous": false,
      "inputs": [
        {
          "indexed": false,
          "internalType": "bytes",
          "name": "fullname",
          "type": "bytes"
        },
        {
          "indexed": false,
          "internalType": "uint40",
          "name": "id",
          "type": "uint40"
        },
        {
          "indexed": false,
          "internalType": "uint8",
          "name": "voteID",
          "type": "uint8"
        }
      ],
      "name": "newCandidateAdded",
      "type": "event"
    },
    {
      "anonymous": false,
      "inputs": [
        {
          "indexed": false,
          "internalType": "bytes",
          "name": "votedCandidate",
          "type": "bytes"
        },
        {
          "indexed": false,
          "internalType": "uint256",
          "name": "candidatesVoteID",
          "type": "uint256"
        },
        {
          "indexed": false,
          "internalType": "address",
          "name": "voter",
          "type": "address"
        }
      ],
      "name": "newVoteTo",
      "type": "event"
    },
    {
      "anonymous": false,
      "inputs": [
        {
          "indexed": false,
          "internalType": "uint256",
          "name": "startAt",
          "type": "uint256"
        },
        {
          "indexed": false,
          "internalType": "uint256",
          "name": "endAt",
          "type": "uint256"
        }
      ],
      "name": "votePeriodUpdate",
      "type": "event"
    },
    {
      "inputs": [],
      "name": "candidateCounter",
      "outputs": [
        {
          "internalType": "uint256",
          "name": "",
          "type": "uint256"
        }
      ],
      "stateMutability": "view",
      "type": "function",
      "constant": true
    },
    {
      "inputs": [],
      "name": "endOfVotePeriod",
      "outputs": [
        {
          "internalType": "uint256",
          "name": "",
          "type": "uint256"
        }
      ],
      "stateMutability": "view",
      "type": "function",
      "constant": true
    },
    {
      "inputs": [],
      "name": "startOfVotePeriod",
      "outputs": [
        {
          "internalType": "uint256",
          "name": "",
          "type": "uint256"
        }
      ],
      "stateMutability": "view",
      "type": "function",
      "constant": true
    },
    {
      "inputs": [],
      "name": "trustedAccount",
      "outputs": [
        {
          "internalType": "address",
          "name": "",
          "type": "address"
        }
      ],
      "stateMutability": "view",
      "type": "function",
      "constant": true
    },
    {
      "inputs": [
        {
          "components": [
            {
              "internalType": "bytes",
              "name": "firstname",
              "type": "bytes"
            },
            {
              "internalType": "bytes",
              "name": "lastname",
              "type": "bytes"
            },
            {
              "internalType": "uint40",
              "name": "id",
              "type": "uint40"
            },
            {
              "internalType": "uint8",
              "name": "voteID",
              "type": "uint8"
            },
            {
              "internalType": "uint256",
              "name": "voteCount",
              "type": "uint256"
            }
          ],
          "internalType": "struct voteSystem.candidate[]",
          "name": "listOfCandidates",
          "type": "tuple[]"
        }
      ],
      "name": "addCandidateList",
      "outputs": [],
      "stateMutability": "nonpayable",
      "type": "function"
    },
    {
      "inputs": [
        {
          "internalType": "uint8",
          "name": "candidateVoteID",
          "type": "uint8"
        }
      ],
      "name": "viewList",
      "outputs": [
        {
          "components": [
            {
              "internalType": "bytes",
              "name": "firstname",
              "type": "bytes"
            },
            {
              "internalType": "bytes",
              "name": "lastname",
              "type": "bytes"
            },
            {
              "internalType": "uint40",
              "name": "id",
              "type": "uint40"
            },
            {
              "internalType": "uint8",
              "name": "voteID",
              "type": "uint8"
            },
            {
              "internalType": "uint256",
              "name": "voteCount",
              "type": "uint256"
            }
          ],
          "internalType": "struct voteSystem.candidate",
          "name": "",
          "type": "tuple"
        }
      ],
      "stateMutability": "view",
      "type": "function",
      "constant": true
    },
    {
      "inputs": [
        {
          "internalType": "uint256",
          "name": "startTime",
          "type": "uint256"
        },
        {
          "internalType": "uint256",
          "name": "endTime",
          "type": "uint256"
        }
      ],
      "name": "setVotePeriod",
      "outputs": [],
      "stateMutability": "nonpayable",
      "type": "function"
    },
    {
      "inputs": [
        {
          "internalType": "uint8",
          "name": "candidateVoteID",
          "type": "uint8"
        },
        {
          "internalType": "bytes32",
          "name": "voteHash",
          "type": "bytes32"
        },
        {
          "internalType": "bytes",
          "name": "trustedAccountSignature",
          "type": "bytes"
        }
      ],
      "name": "voteTo",
      "outputs": [],
      "stateMutability": "nonpayable",
      "type": "function"
    },
    {
      "inputs": [],
      "name": "countVote",
      "outputs": [
        {
          "components": [
            {
              "internalType": "uint8",
              "name": "voteID",
              "type": "uint8"
            },
            {
              "internalType": "uint256",
              "name": "voteCount",
              "type": "uint256"
            }
          ],
          "internalType": "struct voteLibrary.voteCounting[]",
          "name": "",
          "type": "tuple[]"
        }
      ],
      "stateMutability": "view",
      "type": "function",
      "constant": true
    }
  ],
  "bytecode": "0x6080604052600060025534801561001557600080fd5b506114ab806100256000396000f3fe608060405234801561001057600080fd5b50600436106100935760003560e01c80636b570dce116100665780636b570dce146100e85780638246482f146100fd57806397fdb02c1461011d578063d127ee3e14610125578063dcad57d11461013857610093565b80631a6cd2fd146100985780631a9c006a146100b657806336dd6318146100cb5780633bc990db146100e0575b600080fd5b6100a061014b565b6040516100ad91906110e7565b60405180910390f35b6100be61030b565b6040516100ad91906112e4565b6100d3610311565b6040516100ad9190611086565b6100be610329565b6100fb6100f6366004610ed2565b61032f565b005b61011061010b366004610eb6565b610562565b6040516100ad9190611276565b6100be6106de565b6100fb610133366004610cea565b6106e4565b6100fb610146366004610e70565b610b58565b60608060025467ffffffffffffffff81111561017757634e487b7160e01b600052604160045260246000fd5b6040519080825280602002602001820160405280156101b057816020015b61019d610c01565b8152602001906001900390816101955790505b50905060005b6002548160ff161015610279576040518060400160405280600360008460016101df919061139c565b60ff1660ff16815260200190815260200160002060020160059054906101000a900460ff1660ff1681526020016003600084600161021d919061139c565b60ff1660ff16815260200190815260200160002060030154815250828260ff168151811061025b57634e487b7160e01b600052603260045260246000fd5b6020026020010181905250808061027190611417565b9150506101b6565b50604051630d46322560e11b815273__voteLibrary___________________________90631a8c644a906102b190849060040161109a565b60006040518083038186803b1580156102c957600080fd5b505af41580156102dd573d6000803e3d6000fd5b505050506040513d6000823e601f3d908101601f191682016040526103059190810190610d59565b91505090565b60005481565b73f3ca7784b075bbc683aaeb18c11e47e5ee3f335081565b60025481565b6000541580159061034257506000544210155b801561035057506001544211155b6103755760405162461bcd60e51b815260040161036c9061123a565b60405180910390fd5b3360009081526004602052604090205460ff16156103a55760405162461bcd60e51b815260040161036c906111e2565b604051630b135d3f60e11b815260009073__voteLibrary___________________________90631626ba7e906103e390879087908790600401611127565b60206040518083038186803b1580156103fb57600080fd5b505af415801561040f573d6000803e3d6000fd5b505050506040513d601f19601f820116820180604052508101906104339190610e41565b9050630b135d3f60e11b6001600160e01b03198216146104655760405162461bcd60e51b815260040161036c9061121c565b33803b90816105415760ff8716600090815260036020819052604082200180549161048f836113fc565b9091555050336000908152600460209081526040808320805460ff1916600190811790915560ff8b168452600383529281902090517f3d48fccd6f1e2cd1dddbcf63b91ce10e35425be40661ebb46f914f20e88e46bd936104f4939083019101611069565b60408051601f1981840301815282825260ff808c166000908152600360205292909220600201546105349391926501000000000090910416903390611190565b60405180910390a1610559565b60405162461bcd60e51b815260040161036c90611258565b50505050505050565b61056a610c18565b60ff821660009081526003602052604090819020815160a08101909252805482908290610596906113c1565b80601f01602080910402602001604051908101604052809291908181526020018280546105c2906113c1565b801561060f5780601f106105e45761010080835404028352916020019161060f565b820191906000526020600020905b8154815290600101906020018083116105f257829003601f168201915b50505050508152602001600182018054610628906113c1565b80601f0160208091040260200160405190810160405280929190818152602001828054610654906113c1565b80156106a15780601f10610676576101008083540402835291602001916106a1565b820191906000526020600020905b81548152906001019060200180831161068457829003601f168201915b5050509183525050600282015464ffffffffff8116602083015265010000000000900460ff16604082015260039091015460609091015292915050565b60015481565b3373f3ca7784b075bbc683aaeb18c11e47e5ee3f335081146107185760405162461bcd60e51b815260040161036c90611200565b600060028190555b82811015610b52576040518060a0016040528085858481811061075357634e487b7160e01b600052603260045260246000fd5b90506020028101906107659190611347565b61076f90806112fb565b8080601f0160208091040260200160405190810160405280939291908181526020018383808284376000920191909152505050908252506020018585848181106107c957634e487b7160e01b600052603260045260246000fd5b90506020028101906107db9190611347565b6107e99060208101906112fb565b8080601f01602080910402602001604051908101604052809392919081815260200183838082843760009201919091525050509082525060200185858481811061084357634e487b7160e01b600052603260045260246000fd5b90506020028101906108559190611347565b610866906060810190604001610e91565b64ffffffffff16815260200185858481811061089257634e487b7160e01b600052603260045260246000fd5b90506020028101906108a49190611347565b6108b5906080810190606001610eb6565b60ff1681526020018585848181106108dd57634e487b7160e01b600052603260045260246000fd5b90506020028101906108ef9190611347565b6080013590526003600086868581811061091957634e487b7160e01b600052603260045260246000fd5b905060200281019061092b9190611347565b61093c906080810190606001610eb6565b60ff16815260208082019290925260400160002082518051919261096592849290910190610c51565b50602082810151805161097e9260018501920190610c51565b50604082015160028083018054606086015160ff16650100000000000265ff00000000001964ffffffffff90951664ffffffffff1990921691909117939093169290921790915560809092015160039091015580549060006109df836113fc565b91905055507fe7be59f041948522071cfb2dab8e937f3ddf69caabcfc06f18d460b07d0e6b1a848483818110610a2557634e487b7160e01b600052603260045260246000fd5b9050602002810190610a379190611347565b610a4190806112fb565b868685818110610a6157634e487b7160e01b600052603260045260246000fd5b9050602002810190610a739190611347565b610a819060208101906112fb565b604051602001610a94949392919061104b565b604051602081830303815290604052858584818110610ac357634e487b7160e01b600052603260045260246000fd5b9050602002810190610ad59190611347565b610ae6906060810190604001610e91565b868685818110610b0657634e487b7160e01b600052603260045260246000fd5b9050602002810190610b189190611347565b610b29906080810190606001610eb6565b604051610b389392919061115d565b60405180910390a180610b4a816113fc565b915050610720565b50505050565b3373f3ca7784b075bbc683aaeb18c11e47e5ee3f33508114610b8c5760405162461bcd60e51b815260040161036c90611200565b6000541580610b9c575060005442105b610bb85760405162461bcd60e51b815260040161036c906111c6565b600083905560018290556040517f364a94d3cafea9dc11437d4f0b22fc8de759d8a6dcdfbf4444072f565881321390610bf490859085906112ed565b60405180910390a1505050565b604080518082019091526000808252602082015290565b6040518060a001604052806060815260200160608152602001600064ffffffffff168152602001600060ff168152602001600081525090565b828054610c5d906113c1565b90600052602060002090601f016020900481019282610c7f5760008555610cc5565b82601f10610c9857805160ff1916838001178555610cc5565b82800160010185558215610cc5579182015b82811115610cc5578251825591602001919060010190610caa565b50610cd1929150610cd5565b5090565b5b80821115610cd15760008155600101610cd6565b60008060208385031215610cfc578182fd5b823567ffffffffffffffff80821115610d13578384fd5b818501915085601f830112610d26578384fd5b813581811115610d34578485fd5b8660208083028501011115610d47578485fd5b60209290920196919550909350505050565b60006020808385031215610d6b578182fd5b825167ffffffffffffffff80821115610d82578384fd5b818501915085601f830112610d95578384fd5b815181811115610da757610da761144d565b610db48485830201611366565b818152848101908486016040808502870188018b1015610dd2578889fd5b8896505b84871015610e325780828c031215610dec578889fd5b80518181018181108882111715610e0557610e0561144d565b82528251610e1281611463565b815282890151898201528452600196909601959287019290810190610dd6565b50909998505050505050505050565b600060208284031215610e52578081fd5b81516001600160e01b031981168114610e69578182fd5b9392505050565b60008060408385031215610e82578182fd5b50508035926020909101359150565b600060208284031215610ea2578081fd5b813564ffffffffff81168114610e69578182fd5b600060208284031215610ec7578081fd5b8135610e6981611463565b60008060008060608587031215610ee7578182fd5b8435610ef281611463565b935060208501359250604085013567ffffffffffffffff80821115610f15578384fd5b818701915087601f830112610f28578384fd5b813581811115610f36578485fd5b886020828501011115610f47578485fd5b95989497505060200194505050565b60008151808452815b81811015610f7b57602081850181015186830182015201610f5f565b81811115610f8c5782602083870101525b50601f01601f19169290920160200192915050565b805460009060028104600180831680610fbb57607f831692505b6020808410821415610fdb57634e487b7160e01b86526022600452602486fd5b818015610fef57600181146110005761102d565b60ff1986168952848901965061102d565b61100988611390565b60005b868110156110255781548b82015290850190830161100c565b505084890196505b50505050505092915050565b805160ff168252602090810151910152565b60008486833784820181815283858237909201918252509392505050565b600061107e6110788386610fa1565b84610fa1565b949350505050565b6001600160a01b0391909116815260200190565b602080825282518282018190526000919060409081850190868401855b828110156110da576110ca848351611039565b92840192908501906001016110b7565b5091979650505050505050565b602080825282518282018190526000919060409081850190868401855b828110156110da57611117848351611039565b9284019290850190600101611104565b60008482526040602083015282604083015282846060840137818301606090810191909152601f909201601f1916010192915050565b6000606082526111706060830186610f56565b905064ffffffffff8416602083015260ff83166040830152949350505050565b6000606082526111a36060830186610f56565b60ff949094166020830152506001600160a01b0391909116604090910152919050565b602080825260029082015261181b60f11b604082015260600190565b602080825260049082015263010181c160e51b604082015260600190565b602080825260029082015261303560f01b604082015260600190565b602080825260049082015263010181c960e51b604082015260600190565b602080825260049082015263010181b960e51b604082015260600190565b6020808252600490820152630101898160e51b604082015260600190565b600060208252825160a0602084015261129260c0840182610f56565b90506020840151601f198483030160408501526112af8282610f56565b91505064ffffffffff604085015116606084015260ff6060850151166080840152608084015160a08401528091505092915050565b90815260200190565b918252602082015260400190565b6000808335601e19843603018112611311578283fd5b83018035915067ffffffffffffffff82111561132b578283fd5b60200191503681900382131561134057600080fd5b9250929050565b60008235609e1983360301811261135c578182fd5b9190910192915050565b60405181810167ffffffffffffffff811182821017156113885761138861144d565b604052919050565b60009081526020902090565b600060ff821660ff84168060ff038211156113b9576113b9611437565b019392505050565b6002810460018216806113d557607f821691505b602082108114156113f657634e487b7160e01b600052602260045260246000fd5b50919050565b600060001982141561141057611410611437565b5060010190565b600060ff821660ff81141561142e5761142e611437565b60010192915050565b634e487b7160e01b600052601160045260246000fd5b634e487b7160e01b600052604160045260246000fd5b60ff8116811461147257600080fd5b5056fea264697066735822122000e93ac432c52ba9a30364ae5369f280e071ecdb203b9f4a8484d9a4831ac4bc64736f6c63430008000033",
  "immutableReferences": {},
  "source": "// SPDX-License-Identifier: MIT\r\n\r\n//pragma experimental ABIEncoderV2;\r\n\r\npragma solidity ^0.8.0;\r\n\r\nlibrary voteLibrary{\r\n\r\n    address constant public trustedAccount = 0xF3ca7784b075Bbc683Aaeb18C11E47E5ee3f3350;\r\n    bytes4 constant public magicValue = 0x1626ba7e;\r\n\r\n    struct voteCounting{\r\n\r\n        uint8 voteID;\r\n        uint voteCount;\r\n\r\n    }\r\n\r\n    function voteCounter( voteCounting[] calldata countResult ) external view returns( voteCounting[] memory ) {\r\n\r\n        voteCounting[] memory sortedCountResult = new voteCounting[]( countResult.length );//Calldata array is read-only. So we need to declare another array!\r\n\r\n        for( uint i = 0 ; i < countResult.length ; i++ ){\r\n\r\n            sortedCountResult[ i ] = countResult[ i ];\r\n\r\n        }\r\n\r\n        voteCounting memory tempCounting;\r\n\r\n        for( uint i = 0 ; i < sortedCountResult.length ; i++ ){\r\n\r\n            for( uint j = i + 1 ; j < sortedCountResult.length ; j++){\r\n\r\n                if( sortedCountResult[ i ].voteCount < sortedCountResult[ j ].voteCount ){\r\n\r\n                    tempCounting = sortedCountResult[ i ];\r\n                    sortedCountResult[ i ] = sortedCountResult[ j ];\r\n                    sortedCountResult[ j ] = voteCounting( tempCounting.voteID , tempCounting.voteCount );\r\n\r\n                }\r\n\r\n            }\r\n\r\n        }\r\n\r\n        return sortedCountResult;\r\n\r\n    }\r\n\r\n    function isValidSignature( bytes32 _hash , bytes calldata _signature ) external view returns ( bytes4 ){\r\n\r\n        address signer = recoverSignature( _hash , _signature );\r\n\r\n        if( signer == trustedAccount ){\r\n\r\n            return 0x1626ba7e;\r\n\r\n        }else{\r\n\r\n            return 0xffffffff;\r\n\r\n        }\r\n\r\n    }\r\n\r\n    function recoverSignature( bytes32 _hash , bytes memory _signature ) public pure returns( address ){\r\n\r\n        require( _signature.length == 65 , \"01\" );\r\n        //01: Signature length is not valid!\r\n\r\n        uint8 v = uint8( _signature[ 64 ] );\r\n        bytes32 r;\r\n        bytes32 s;\r\n\r\n        assembly {\r\n\r\n            r := mload( add( _signature , 0x20 ) )\r\n            s := mload( add( _signature , 0x40 ) )\r\n\r\n        }\r\n\r\n        require( uint256( s ) <= 0x7FFFFFFFFFFFFFFFFFFFFFFFFFFFFFFF5D576E7357A4501DDFE92F46681B20A0 ,\r\n                    \" 02 \" );\r\n        //02: The 's' value of the signature is not valid!\r\n        require( v == 27 || v == 28 , \" 03 \" );\r\n        //03: The 'v' value of the signature is not valid!\r\n\r\n        address signer = ecrecover( _hash , v , r , s );\r\n\r\n        require( signer != address( 0x0 ) , \" 04 \" );\r\n        //04: The signer address is not valid!\r\n\r\n        return signer;\r\n\r\n    }\r\n\r\n}\r\n\r\ncontract voteSystem{\r\n\r\n    address constant public trustedAccount = 0xF3ca7784b075Bbc683Aaeb18C11E47E5ee3f3350; //This address can change for each project using this contract!\r\n    uint public startOfVotePeriod;\r\n    uint public endOfVotePeriod;\r\n    uint public candidateCounter=0;\r\n\r\n    struct candidate{\r\n\r\n        bytes firstname;\r\n        bytes lastname;\r\n        uint40 id;\r\n        uint8 voteID;\r\n        uint voteCount;\r\n\r\n    }\r\n\r\n    event newCandidateAdded( bytes fullname , uint40 id , uint8 voteID );\r\n    event votePeriodUpdate( uint startAt , uint endAt );\r\n    event newVoteTo( bytes votedCandidate , uint candidatesVoteID , address voter );\r\n\r\n    mapping( uint8 => candidate ) private candidateList;\r\n    mapping( address => bool ) private revoteCheck;\r\n\r\n\r\n    modifier onlyTrustedAccount( address accountAddress ) {\r\n\r\n        require( trustedAccount == accountAddress , \"05\" );\r\n        //05: Just the trusted account has access to do this task!\r\n        _;\r\n\r\n    }\r\n\r\n    function addCandidateList( candidate[] calldata listOfCandidates ) external onlyTrustedAccount(msg.sender) {\r\n\r\n        candidateCounter = 0;\r\n\r\n        for ( uint i = 0 ; i < listOfCandidates.length ; i++ ){\r\n\r\n            candidateList[listOfCandidates[i].voteID] = candidate( listOfCandidates[i].firstname , listOfCandidates[i].lastname , listOfCandidates[i].id , listOfCandidates[i].voteID , listOfCandidates[i].voteCount );\r\n            candidateCounter++;\r\n            emit newCandidateAdded( abi.encodePacked( listOfCandidates[i].firstname , listOfCandidates[i].lastname ) , listOfCandidates[i].id , listOfCandidates[i].voteID );\r\n\r\n        }\r\n\r\n    }\r\n\r\n    function viewList( uint8 candidateVoteID) external view returns( candidate memory ){\r\n\r\n        return ( candidateList[ candidateVoteID ] );\r\n\r\n    }\r\n\r\n    function setVotePeriod( uint startTime , uint endTime ) external onlyTrustedAccount( msg.sender ) {\r\n\r\n        require( startOfVotePeriod == 0 || block.timestamp < startOfVotePeriod , \"06\" );\r\n        //06: Reset the vote period is not allowed!\r\n        \r\n        startOfVotePeriod = startTime;\r\n        endOfVotePeriod = endTime;\r\n\r\n        emit votePeriodUpdate( startOfVotePeriod , endOfVotePeriod );\r\n\r\n    }\r\n\r\n    function voteTo( uint8 candidateVoteID , bytes32 voteHash , bytes calldata trustedAccountSignature ) external {\r\n\r\n        require( startOfVotePeriod!= 0 && block.timestamp >= startOfVotePeriod && block.timestamp <= endOfVotePeriod , \" 07 \" );\r\n        //07: Out of vote period!\r\n        \r\n        //Validating revote\r\n        require( !revoteCheck[ msg.sender ] , \" 08 \" );\r\n        //08: Revoting is not allowed!\r\n\r\n        //Validating signature\r\n        bytes4 validationResult = voteLibrary.isValidSignature( voteHash , trustedAccountSignature );\r\n        require( validationResult == 0x1626ba7e , \" 09 \" );\r\n        //09: You are not an eligible voter!\r\n\r\n        //Counting the vote\r\n        uint codeSize;\r\n        address msgSender = msg.sender;\r\n\r\n        assembly {\r\n\r\n            codeSize := extcodesize( msgSender )\r\n\r\n        }\r\n\r\n        if( codeSize == 0){\r\n\r\n            candidateList[ candidateVoteID ].voteCount++;\r\n            revoteCheck[ msg.sender ] = true;\r\n\r\n            emit newVoteTo( abi.encodePacked( candidateList[ candidateVoteID ].firstname , candidateList[ candidateVoteID ].lastname ) ,\r\n                            candidateList[ candidateVoteID ].voteID , msg.sender );\r\n\r\n        }else{\r\n\r\n            revert( \" 10 \" );\r\n            //10: Smart contract is not allowed to vote!\r\n\r\n        }\r\n\r\n    }\r\n\r\n    function countVote() external view returns( voteLibrary.voteCounting[] memory ){\r\n\r\n        voteLibrary.voteCounting[] memory voteCountingArray;\r\n        voteCountingArray = new voteLibrary.voteCounting[]( candidateCounter );\r\n\r\n        for( uint8 i = 0 ; i < candidateCounter ; i++ ){\r\n\r\n            voteCountingArray[ i ] = voteLibrary.voteCounting( candidateList[ i + 1 ].voteID , candidateList[ i + 1 ].voteCount );\r\n\r\n        }\r\n\r\n        return voteLibrary.voteCounter( voteCountingArray );\r\n    }\r\n\r\n}",
  "sourcePath": "E:\\smartContract\\contracts\\votingSystem.sol",
  "compiler": {
    "name": "solc",
    "version": "0.8.0+commit.c7dfd78e.Emscripten.clang"
  },
  "schemaVersion": "3.4.16",
  "updatedAt": "2024-06-08T16:45:25.862Z",
  "networkType": "ethereum",
  "devdoc": {
    "kind": "dev",
    "methods": {},
    "version": 1
  },
  "userdoc": {
    "kind": "user",
    "methods": {},
    "version": 1
  }
}