{
  "contractName": "voteLibrary",
  "abi": [
    {
      "constant": true,
      "inputs": [],
      "name": "magicValue",
      "outputs": [
        {
          "internalType": "bytes4",
          "name": "",
          "type": "bytes4"
        }
      ],
      "payable": false,
      "stateMutability": "view",
      "type": "function"
    },
    {
      "constant": true,
      "inputs": [],
      "name": "trustedAccount",
      "outputs": [
        {
          "internalType": "address",
          "name": "",
          "type": "address"
        }
      ],
      "payable": false,
      "stateMutability": "view",
      "type": "function"
    },
    {
      "constant": true,
      "inputs": [
        {
          "components": [
            {
              "internalType": "uint8",
              "name": "voteID",
              "type": "uint8"
            },
            {
              "internalType": "uint256",
              "name": "voteCount",
              "type": "uint256"
            }
          ],
          "internalType": "struct voteLibrary.voteCounting[]",
          "name": "countResult",
          "type": "tuple[]"
        }
      ],
      "name": "voteCounter",
      "outputs": [
        {
          "components": [
            {
              "internalType": "uint8",
              "name": "voteID",
              "type": "uint8"
            },
            {
              "internalType": "uint256",
              "name": "voteCount",
              "type": "uint256"
            }
          ],
          "internalType": "struct voteLibrary.voteCounting[]",
          "name": "",
          "type": "tuple[]"
        }
      ],
      "payable": false,
      "stateMutability": "view",
      "type": "function"
    },
    {
      "constant": true,
      "inputs": [
        {
          "internalType": "bytes32",
          "name": "_hash",
          "type": "bytes32"
        },
        {
          "internalType": "bytes",
          "name": "_signature",
          "type": "bytes"
        }
      ],
      "name": "isValidSignature",
      "outputs": [
        {
          "internalType": "bytes4",
          "name": "",
          "type": "bytes4"
        }
      ],
      "payable": false,
      "stateMutability": "view",
      "type": "function"
    },
    {
      "constant": true,
      "inputs": [
        {
          "internalType": "bytes32",
          "name": "_hash",
          "type": "bytes32"
        },
        {
          "internalType": "bytes",
          "name": "_signature",
          "type": "bytes"
        }
      ],
      "name": "recoverSignature",
      "outputs": [
        {
          "internalType": "address",
          "name": "",
          "type": "address"
        }
      ],
      "payable": false,
      "stateMutability": "pure",
      "type": "function"
    }
  ],
  "bytecode": "0x610dbb610026600b82828239805160001a60731461001957fe5b30600052607381538281f3fe73000000000000000000000000000000000000000030146080604052600436106100615760003560e01c80631626ba7e146100665780631a8c644a1461009657806336dd6318146100c65780637621fd67146100e4578063a4b3455714610114575b600080fd5b610080600480360361007b919081019061079f565b610132565b60405161008d9190610b67565b60405180910390f35b6100b060048036036100ab919081019061075a565b6101f0565b6040516100bd9190610b00565b60405180910390f35b6100ce61038a565b6040516100db9190610ae5565b60405180910390f35b6100fe60048036036100f991908101906107f7565b6103a2565b60405161010b9190610ae5565b60405180910390f35b61011c6105a2565b6040516101299190610b67565b60405180910390f35b6000806101838585858080601f016020809104026020016040519081016040528093929190818152602001838380828437600081840152601f19601f820116905080830192505050505050506103a2565b905073f3ca7784b075bbc683aaeb18c11e47e5ee3f335073ffffffffffffffffffffffffffffffffffffffff168173ffffffffffffffffffffffffffffffffffffffff1614156101dd57631626ba7e60e01b9150506101e9565b63ffffffff60e01b9150505b9392505050565b6060808383905060405190808252806020026020018201604052801561023057816020015b61021d6105ad565b8152602001906001900390816102155790505b50905060008090505b8484905081101561028a5784848281811061025057fe5b905060400201803603610266919081019061084b565b82828151811061027257fe5b60200260200101819052508080600101915050610239565b506102936105ca565b60008090505b825181101561037e5760006001820190505b8351811015610370578381815181106102c057fe5b6020026020010151602001518483815181106102d857fe5b6020026020010151602001511015610363578382815181106102f657fe5b6020026020010151925083818151811061030c57fe5b602002602001015184838151811061032057fe5b60200260200101819052506040518060400160405280846000015160ff168152602001846020015181525084828151811061035757fe5b60200260200101819052505b80806001019150506102ab565b508080600101915050610299565b50819250505092915050565b73f3ca7784b075bbc683aaeb18c11e47e5ee3f335081565b600060418251146103e8576040517f08c379a00000000000000000000000000000000000000000000000000000000081526004016103df90610bc2565b60405180910390fd5b6000826040815181106103f757fe5b602001015160f81c60f81b60f81c905060008060208501519150604085015190507f7fffffffffffffffffffffffffffffff5d576e7357a4501ddfe92f46681b20a08160001c111561047e576040517f08c379a000000000000000000000000000000000000000000000000000000000815260040161047590610ba2565b60405180910390fd5b601b8360ff1614806104935750601c8360ff16145b6104d2576040517f08c379a00000000000000000000000000000000000000000000000000000000081526004016104c990610b82565b60405180910390fd5b6000600187858585604051600081526020016040526040516104f79493929190610b22565b6020604051602081039080840390855afa158015610519573d6000803e3d6000fd5b505050602060405103519050600073ffffffffffffffffffffffffffffffffffffffff168173ffffffffffffffffffffffffffffffffffffffff161415610595576040517f08c379a000000000000000000000000000000000000000000000000000000000815260040161058c90610be2565b60405180910390fd5b8094505050505092915050565b631626ba7e60e01b81565b6040518060400160405280600060ff168152602001600081525090565b6040518060400160405280600060ff168152602001600081525090565b60008083601f8401126105f957600080fd5b8235905067ffffffffffffffff81111561061257600080fd5b60208301915083604082028301111561062a57600080fd5b9250929050565b60008135905061064081610d33565b92915050565b60008083601f84011261065857600080fd5b8235905067ffffffffffffffff81111561067157600080fd5b60208301915083600182028301111561068957600080fd5b9250929050565b600082601f8301126106a157600080fd5b81356106b46106af82610c2f565b610c02565b915080825260208301602083018583830111156106d057600080fd5b6106db838284610d24565b50505092915050565b6000604082840312156106f657600080fd5b6107006040610c02565b9050600061071084828501610745565b600083015250602061072484828501610730565b60208301525092915050565b60008135905061073f81610d4a565b92915050565b60008135905061075481610d61565b92915050565b6000806020838503121561076d57600080fd5b600083013567ffffffffffffffff81111561078757600080fd5b610793858286016105e7565b92509250509250929050565b6000806000604084860312156107b457600080fd5b60006107c286828701610631565b935050602084013567ffffffffffffffff8111156107df57600080fd5b6107eb86828701610646565b92509250509250925092565b6000806040838503121561080a57600080fd5b600061081885828601610631565b925050602083013567ffffffffffffffff81111561083557600080fd5b61084185828601610690565b9150509250929050565b60006040828403121561085d57600080fd5b600061086b848285016106e4565b91505092915050565b60006108808383610a89565b60408301905092915050565b61089581610ca5565b82525050565b60006108a682610c6b565b6108b08185610c83565b93506108bb83610c5b565b8060005b838110156108ec5781516108d38882610874565b97506108de83610c76565b9250506001810190506108bf565b5085935050505092915050565b61090281610cb7565b82525050565b61091181610cc1565b82525050565b6000610924602e83610c94565b91507f20546865202776272076616c7565206f6620746865207369676e61747572652060008301527f6973206e6f742076616c696421200000000000000000000000000000000000006020830152604082019050919050565b600061098a602e83610c94565b91507f20546865202773272076616c7565206f6620746865207369676e61747572652060008301527f6973206e6f742076616c696421200000000000000000000000000000000000006020830152604082019050919050565b60006109f0601e83610c94565b91507f5369676e6174757265206c656e677468206973206e6f742076616c69642100006000830152602082019050919050565b6000610a30602283610c94565b91507f20546865207369676e65722061646472657373206973206e6f742076616c696460008301527f21200000000000000000000000000000000000000000000000000000000000006020830152604082019050919050565b604082016000820151610a9f6000850182610ad6565b506020820151610ab26020850182610ab8565b50505050565b610ac181610d0d565b82525050565b610ad081610d17565b82525050565b610adf81610d17565b82525050565b6000602082019050610afa600083018461088c565b92915050565b60006020820190508181036000830152610b1a818461089b565b905092915050565b6000608082019050610b3760008301876108f9565b610b446020830186610ac7565b610b5160408301856108f9565b610b5e60608301846108f9565b95945050505050565b6000602082019050610b7c6000830184610908565b92915050565b60006020820190508181036000830152610b9b81610917565b9050919050565b60006020820190508181036000830152610bbb8161097d565b9050919050565b60006020820190508181036000830152610bdb816109e3565b9050919050565b60006020820190508181036000830152610bfb81610a23565b9050919050565b6000604051905081810181811067ffffffffffffffff82111715610c2557600080fd5b8060405250919050565b600067ffffffffffffffff821115610c4657600080fd5b601f19601f8301169050602081019050919050565b6000819050602082019050919050565b600081519050919050565b6000602082019050919050565b600082825260208201905092915050565b600082825260208201905092915050565b6000610cb082610ced565b9050919050565b6000819050919050565b60007fffffffff0000000000000000000000000000000000000000000000000000000082169050919050565b600073ffffffffffffffffffffffffffffffffffffffff82169050919050565b6000819050919050565b600060ff82169050919050565b82818337600083830152505050565b610d3c81610cb7565b8114610d4757600080fd5b50565b610d5381610d0d565b8114610d5e57600080fd5b50565b610d6a81610d17565b8114610d7557600080fd5b5056fea365627a7a72315820d947bc758454e13996af6bd970eedfde72c583ecd88587d3f3a0a89c1f800e876c6578706572696d656e74616cf564736f6c63430005100040",
  "source": "// SPDX-License-Identifier: MIT`\r\n\r\npragma experimental ABIEncoderV2;\r\n\r\npragma solidity ^0.5.12;\r\n\r\nlibrary voteLibrary{\r\n\r\n    address constant public trustedAccount = 0xF3ca7784b075Bbc683Aaeb18C11E47E5ee3f3350;\r\n    bytes4 constant public magicValue = 0x1626ba7e;\r\n\r\n    struct voteCounting{\r\n\r\n        uint8 voteID;\r\n        uint voteCount;\r\n\r\n    }\r\n\r\n    function voteCounter( voteCounting[] calldata countResult ) external view returns( voteCounting[] memory ) {\r\n\r\n        voteCounting[] memory sortedCountResult = new voteCounting[]( countResult.length );//Calldata array is read-only. So we need to declare another array!\r\n\r\n        for( uint i = 0 ; i < countResult.length ; i++ ){\r\n\r\n            sortedCountResult[ i ] = countResult[ i ];\r\n\r\n        }\r\n\r\n        voteCounting memory tempCounting;\r\n\r\n        for( uint i = 0 ; i < sortedCountResult.length ; i++ ){\r\n\r\n            for( uint j = i + 1 ; j < sortedCountResult.length ; j++){\r\n\r\n                if( sortedCountResult[ i ].voteCount < sortedCountResult[ j ].voteCount ){\r\n\r\n                    tempCounting = sortedCountResult[ i ];\r\n                    sortedCountResult[ i ] = sortedCountResult[ j ];\r\n                    sortedCountResult[ j ] = voteCounting( tempCounting.voteID , tempCounting.voteCount );\r\n\r\n                }\r\n\r\n            }\r\n\r\n        }\r\n\r\n        return sortedCountResult;\r\n\r\n    }\r\n\r\n    function isValidSignature( bytes32 _hash , bytes calldata _signature ) external view returns ( bytes4 ){\r\n\r\n        address signer = recoverSignature( _hash , _signature );\r\n\r\n        if( signer == trustedAccount ){\r\n\r\n            return 0x1626ba7e;\r\n\r\n        }else{\r\n\r\n            return 0xffffffff;\r\n\r\n        }\r\n\r\n    }\r\n\r\n    function recoverSignature( bytes32 _hash , bytes memory _signature ) public pure returns( address ){\r\n\r\n        require( _signature.length == 65 , \"Signature length is not valid!\" );\r\n\r\n        uint8 v = uint8( _signature[ 64 ] );\r\n        bytes32 r;\r\n        bytes32 s;\r\n\r\n        assembly {\r\n\r\n            r := mload( add( _signature , 0x20 ) )\r\n            s := mload( add( _signature , 0x40 ) )\r\n\r\n        }\r\n\r\n        require( uint256( s ) <= 0x7FFFFFFFFFFFFFFFFFFFFFFFFFFFFFFF5D576E7357A4501DDFE92F46681B20A0 ,\r\n                    \" The 's' value of the signature is not valid! \" );\r\n        require( v == 27 || v == 28 , \" The 'v' value of the signature is not valid! \" );\r\n\r\n        address signer = ecrecover( _hash , v , r , s );\r\n\r\n        require( signer != address( 0x0 ) , \" The signer address is not valid! \" );\r\n\r\n        return signer;\r\n\r\n    }\r\n\r\n}\r\n\r\ncontract voteSystem{\r\n\r\n    address constant public trustedAccount = 0xF3ca7784b075Bbc683Aaeb18C11E47E5ee3f3350; //This address can change for each project using this contract!\r\n    uint public startOfVotePeriod;\r\n    uint public endOfVotePeriod;\r\n    uint public candidateCounter=0;\r\n\r\n    struct candidate{\r\n\r\n        bytes firstname;\r\n        bytes lastname;\r\n        uint40 id;\r\n        uint8 voteID;\r\n        uint voteCount;\r\n\r\n    }\r\n\r\n    event newCandidateAdded( bytes fullname , uint40 id , uint8 voteID );\r\n    event votePeriodUpdate( uint startAt , uint endAt );\r\n    event newVoteTo( bytes votedCandidate , uint candidatesVoteID , address voter );\r\n\r\n    mapping( uint8 => candidate ) private candidateList;\r\n    mapping( address => bool ) private revoteCheck;\r\n\r\n\r\n    modifier onlyTrustedAccount( address accountAddress ) {\r\n\r\n        require( trustedAccount == accountAddress , \"Just the trusted account has access to do this task!\" );\r\n        _;\r\n\r\n    }\r\n\r\n    function addCandidateList( candidate[] calldata listOfCandidates ) external onlyTrustedAccount(msg.sender) {\r\n\r\n        candidateCounter = 0;\r\n\r\n        for ( uint i = 0 ; i < listOfCandidates.length ; i++ ){\r\n\r\n            candidateList[listOfCandidates[i].voteID] = candidate( listOfCandidates[i].firstname , listOfCandidates[i].lastname , listOfCandidates[i].id , listOfCandidates[i].voteID , listOfCandidates[i].voteCount );\r\n            candidateCounter++;\r\n            emit newCandidateAdded( abi.encodePacked( listOfCandidates[i].firstname , listOfCandidates[i].lastname ) , listOfCandidates[i].id , listOfCandidates[i].voteID );\r\n\r\n        }\r\n\r\n    }\r\n\r\n    function viewList( uint8 candidateVoteID) external view returns( candidate memory ){\r\n\r\n        return ( candidateList[ candidateVoteID ] );\r\n\r\n    }\r\n\r\n    function setVotePeriod( uint startTime , uint endTime ) external onlyTrustedAccount( msg.sender ) {\r\n\r\n        require( startOfVotePeriod == 0 || block.timestamp < startOfVotePeriod , \"Reset the vote period is not allowed!\" );\r\n        \r\n        startOfVotePeriod = startTime;\r\n        endOfVotePeriod = endTime;\r\n\r\n        emit votePeriodUpdate( startOfVotePeriod , endOfVotePeriod );\r\n\r\n    }\r\n\r\n    function voteTo( uint8 candidateVoteID , bytes32 voteHash , bytes calldata trustedAccountSignature ) external {\r\n\r\n        require( startOfVotePeriod!= 0 && block.timestamp >= startOfVotePeriod && block.timestamp <= endOfVotePeriod , \"Out of vote period!\" );\r\n        \r\n        //Validating revote\r\n        require( !revoteCheck[ msg.sender ] , \"Revoting is not allowed!\" );\r\n\r\n        //Validating signature\r\n        bytes4 validationResult = voteLibrary.isValidSignature( voteHash , trustedAccountSignature );\r\n        require( validationResult == 0x1626ba7e , \" You are not an eligible voter! \" );\r\n\r\n        //Counting the vote\r\n        uint codeSize;\r\n        address msgSender = msg.sender;\r\n\r\n        assembly {\r\n\r\n            codeSize := extcodesize( msgSender )\r\n\r\n        }\r\n\r\n        if( codeSize == 0){\r\n\r\n            candidateList[ candidateVoteID ].voteCount++;\r\n            revoteCheck[ msg.sender ] = true;\r\n\r\n            emit newVoteTo( abi.encodePacked( candidateList[ candidateVoteID ].firstname , candidateList[ candidateVoteID ].lastname ) ,\r\n                            candidateList[ candidateVoteID ].voteID , msg.sender );\r\n\r\n        }else{\r\n\r\n            revert( \"Smart contract is not allowed to vote!\" );\r\n\r\n        }\r\n\r\n    }\r\n\r\n    function countVote() external view returns( voteLibrary.voteCounting[] memory ){\r\n\r\n        voteLibrary.voteCounting[] memory voteCountingArray;\r\n        voteCountingArray = new voteLibrary.voteCounting[]( candidateCounter );\r\n\r\n        for( uint8 i = 0 ; i < candidateCounter ; i++ ){\r\n\r\n            voteCountingArray[ i ] = voteLibrary.voteCounting( candidateList[ i + 1 ].voteID , candidateList[ i + 1 ].voteCount );\r\n\r\n        }\r\n\r\n        return voteLibrary.voteCounter( voteCountingArray );\r\n    }\r\n\r\n}",
  "sourcePath": "E:\\smartContract\\contracts\\votingSystem.sol",
  "compiler": {
    "name": "solc",
    "version": "0.5.16+commit.9c3226ce.Emscripten.clang"
  },
  "schemaVersion": "3.4.16",
  "updatedAt": "2024-06-08T05:08:05.836Z",
  "networkType": "ethereum",
  "devdoc": {
    "methods": {}
  },
  "userdoc": {
    "methods": {}
  }
}