{
  "contractName": "voteSystem",
  "abi": [
    {
      "anonymous": false,
      "inputs": [
        {
          "indexed": false,
          "internalType": "bytes",
          "name": "fullname",
          "type": "bytes"
        },
        {
          "indexed": false,
          "internalType": "uint40",
          "name": "id",
          "type": "uint40"
        },
        {
          "indexed": false,
          "internalType": "uint8",
          "name": "voteID",
          "type": "uint8"
        }
      ],
      "name": "newCandidateAdded",
      "type": "event"
    },
    {
      "anonymous": false,
      "inputs": [
        {
          "indexed": false,
          "internalType": "bytes",
          "name": "votedCandidate",
          "type": "bytes"
        },
        {
          "indexed": false,
          "internalType": "uint256",
          "name": "candidatesVoteID",
          "type": "uint256"
        },
        {
          "indexed": false,
          "internalType": "address",
          "name": "voter",
          "type": "address"
        }
      ],
      "name": "newVoteTo",
      "type": "event"
    },
    {
      "anonymous": false,
      "inputs": [
        {
          "indexed": false,
          "internalType": "uint256",
          "name": "startAt",
          "type": "uint256"
        },
        {
          "indexed": false,
          "internalType": "uint256",
          "name": "endAt",
          "type": "uint256"
        }
      ],
      "name": "votePeriodUpdate",
      "type": "event"
    },
    {
      "constant": true,
      "inputs": [],
      "name": "candidateCounter",
      "outputs": [
        {
          "internalType": "uint256",
          "name": "",
          "type": "uint256"
        }
      ],
      "payable": false,
      "stateMutability": "view",
      "type": "function"
    },
    {
      "constant": true,
      "inputs": [],
      "name": "endOfVotePeriod",
      "outputs": [
        {
          "internalType": "uint256",
          "name": "",
          "type": "uint256"
        }
      ],
      "payable": false,
      "stateMutability": "view",
      "type": "function"
    },
    {
      "constant": true,
      "inputs": [],
      "name": "startOfVotePeriod",
      "outputs": [
        {
          "internalType": "uint256",
          "name": "",
          "type": "uint256"
        }
      ],
      "payable": false,
      "stateMutability": "view",
      "type": "function"
    },
    {
      "constant": true,
      "inputs": [],
      "name": "trustedAccount",
      "outputs": [
        {
          "internalType": "address",
          "name": "",
          "type": "address"
        }
      ],
      "payable": false,
      "stateMutability": "view",
      "type": "function"
    },
    {
      "constant": false,
      "inputs": [
        {
          "components": [
            {
              "internalType": "bytes",
              "name": "firstname",
              "type": "bytes"
            },
            {
              "internalType": "bytes",
              "name": "lastname",
              "type": "bytes"
            },
            {
              "internalType": "uint40",
              "name": "id",
              "type": "uint40"
            },
            {
              "internalType": "uint8",
              "name": "voteID",
              "type": "uint8"
            },
            {
              "internalType": "uint256",
              "name": "voteCount",
              "type": "uint256"
            }
          ],
          "internalType": "struct voteSystem.candidate[]",
          "name": "listOfCandidates",
          "type": "tuple[]"
        }
      ],
      "name": "addCandidateList",
      "outputs": [],
      "payable": false,
      "stateMutability": "nonpayable",
      "type": "function"
    },
    {
      "constant": true,
      "inputs": [
        {
          "internalType": "uint8",
          "name": "candidateVoteID",
          "type": "uint8"
        }
      ],
      "name": "viewList",
      "outputs": [
        {
          "components": [
            {
              "internalType": "bytes",
              "name": "firstname",
              "type": "bytes"
            },
            {
              "internalType": "bytes",
              "name": "lastname",
              "type": "bytes"
            },
            {
              "internalType": "uint40",
              "name": "id",
              "type": "uint40"
            },
            {
              "internalType": "uint8",
              "name": "voteID",
              "type": "uint8"
            },
            {
              "internalType": "uint256",
              "name": "voteCount",
              "type": "uint256"
            }
          ],
          "internalType": "struct voteSystem.candidate",
          "name": "",
          "type": "tuple"
        }
      ],
      "payable": false,
      "stateMutability": "view",
      "type": "function"
    },
    {
      "constant": false,
      "inputs": [
        {
          "internalType": "uint256",
          "name": "startTime",
          "type": "uint256"
        },
        {
          "internalType": "uint256",
          "name": "endTime",
          "type": "uint256"
        }
      ],
      "name": "setVotePeriod",
      "outputs": [],
      "payable": false,
      "stateMutability": "nonpayable",
      "type": "function"
    },
    {
      "constant": false,
      "inputs": [
        {
          "internalType": "uint8",
          "name": "candidateVoteID",
          "type": "uint8"
        },
        {
          "internalType": "bytes32",
          "name": "voteHash",
          "type": "bytes32"
        },
        {
          "internalType": "bytes",
          "name": "trustedAccountSignature",
          "type": "bytes"
        }
      ],
      "name": "voteTo",
      "outputs": [],
      "payable": false,
      "stateMutability": "nonpayable",
      "type": "function"
    },
    {
      "constant": true,
      "inputs": [],
      "name": "countVote",
      "outputs": [
        {
          "components": [
            {
              "internalType": "uint8",
              "name": "voteID",
              "type": "uint8"
            },
            {
              "internalType": "uint256",
              "name": "voteCount",
              "type": "uint256"
            }
          ],
          "internalType": "struct voteLibrary.voteCounting[]",
          "name": "",
          "type": "tuple[]"
        }
      ],
      "payable": false,
      "stateMutability": "view",
      "type": "function"
    }
  ],
  "bytecode": "0x6080604052600060025534801561001557600080fd5b50611f82806100256000396000f3fe608060405234801561001057600080fd5b50600436106100935760003560e01c80636b570dce116100665780636b570dce146101105780638246482f1461012c57806397fdb02c1461015c578063d127ee3e1461017a578063dcad57d11461019657610093565b80631a6cd2fd146100985780631a9c006a146100b657806336dd6318146100d45780633bc990db146100f2575b600080fd5b6100a06101b2565b6040516100ad9190611a70565b60405180910390f35b6100be610324565b6040516100cb9190611c44565b60405180910390f35b6100dc61032a565b6040516100e99190611a55565b60405180910390f35b6100fa610342565b6040516101079190611c44565b60405180910390f35b61012a600480360361012591908101906113de565b610348565b005b610146600480360361014191908101906113b5565b6106c8565b6040516101539190611c22565b60405180910390f35b61016461088f565b6040516101719190611c44565b60405180910390f35b610194600480360361018f91908101906112a1565b610895565b005b6101b060048036036101ab9190810190611350565b610e8d565b005b6060806002546040519080825280602002602001820160405280156101f157816020015b6101de610fb0565b8152602001906001900390816101d65790505b50905060008090505b6002548160ff161015610291576040518060400160405280600360006001850160ff1660ff16815260200190815260200160002060020160059054906101000a900460ff1660ff168152602001600360006001850160ff1660ff16815260200190815260200160002060030154815250828260ff168151811061027957fe5b602002602001018190525080806001019150506101fa565b5073__voteLibrary___________________________631a8c644a826040518263ffffffff1660e01b81526004016102c99190611a92565b60006040518083038186803b1580156102e157600080fd5b505af41580156102f5573d6000803e3d6000fd5b505050506040513d6000823e3d601f19601f8201168201806040525061031e91908101906112e6565b91505090565b60005481565b73f3ca7784b075bbc683aaeb18c11e47e5ee3f335081565b60025481565b600080541415801561035c57506000544210155b801561036a57506001544211155b6103a9576040517f08c379a00000000000000000000000000000000000000000000000000000000081526004016103a090611be2565b60405180910390fd5b600460003373ffffffffffffffffffffffffffffffffffffffff1673ffffffffffffffffffffffffffffffffffffffff16815260200190815260200160002060009054906101000a900460ff1615610436576040517f08c379a000000000000000000000000000000000000000000000000000000000815260040161042d90611b62565b60405180910390fd5b600073__voteLibrary___________________________631626ba7e8585856040518463ffffffff1660e01b815260040161047393929190611ab4565b60206040518083038186803b15801561048b57600080fd5b505af415801561049f573d6000803e3d6000fd5b505050506040513d601f19601f820116820180604052506104c39190810190611327565b9050631626ba7e60e01b817bffffffffffffffffffffffffffffffffffffffffffffffffffffffff19161461052d576040517f08c379a000000000000000000000000000000000000000000000000000000000815260040161052490611ba2565b60405180910390fd5b600080339050803b9150600082141561068457600360008860ff1660ff168152602001908152602001600020600301600081548092919060010191905055506001600460003373ffffffffffffffffffffffffffffffffffffffff1673ffffffffffffffffffffffffffffffffffffffff16815260200190815260200160002060006101000a81548160ff0219169083151502179055507f3d48fccd6f1e2cd1dddbcf63b91ce10e35425be40661ebb46f914f20e88e46bd600360008960ff1660ff168152602001908152602001600020600001600360008a60ff1660ff16815260200190815260200160002060010160405160200161062e929190611a31565b604051602081830303815290604052600360008a60ff1660ff16815260200190815260200160002060020160059054906101000a900460ff163360405161067793929190611b24565b60405180910390a16106bf565b6040517f08c379a00000000000000000000000000000000000000000000000000000000081526004016106b690611c02565b60405180910390fd5b50505050505050565b6106d0610fcd565b600360008360ff1660ff1681526020019081526020016000206040518060a0016040529081600082018054600181600116156101000203166002900480601f01602080910402602001604051908101604052809291908181526020018280546001816001161561010002031660029004801561078d5780601f106107625761010080835404028352916020019161078d565b820191906000526020600020905b81548152906001019060200180831161077057829003601f168201915b50505050508152602001600182018054600181600116156101000203166002900480601f01602080910402602001604051908101604052809291908181526020018280546001816001161561010002031660029004801561082f5780601f106108045761010080835404028352916020019161082f565b820191906000526020600020905b81548152906001019060200180831161081257829003601f168201915b505050505081526020016002820160009054906101000a900464ffffffffff1664ffffffffff1664ffffffffff1681526020016002820160059054906101000a900460ff1660ff1660ff1681526020016003820154815250509050919050565b60015481565b338073ffffffffffffffffffffffffffffffffffffffff1673f3ca7784b075bbc683aaeb18c11e47e5ee3f335073ffffffffffffffffffffffffffffffffffffffff1614610918576040517f08c379a000000000000000000000000000000000000000000000000000000000815260040161090f90611bc2565b60405180910390fd5b600060028190555060008090505b83839050811015610e87576040518060a0016040528085858481811061094857fe5b905060200281018035600160a00383360303811261096557600080fd5b80830192505050806000018035600160200383360303811261098657600080fd5b8083019250508135905060208201915067ffffffffffffffff8111156109ab57600080fd5b6001810236038213156109bd57600080fd5b8080601f016020809104026020016040519081016040528093929190818152602001838380828437600081840152601f19601f820116905080830192505050505050508152602001858584818110610a1157fe5b905060200281018035600160a003833603038112610a2e57600080fd5b808301925050508060200180356001602003833603038112610a4f57600080fd5b8083019250508135905060208201915067ffffffffffffffff811115610a7457600080fd5b600181023603821315610a8657600080fd5b8080601f016020809104026020016040519081016040528093929190818152602001838380828437600081840152601f19601f820116905080830192505050505050508152602001858584818110610ada57fe5b905060200281018035600160a003833603038112610af757600080fd5b808301925050506040016020610b10919081019061138c565b64ffffffffff168152602001858584818110610b2857fe5b905060200281018035600160a003833603038112610b4557600080fd5b808301925050506060016020610b5e91908101906113b5565b60ff168152602001858584818110610b7257fe5b905060200281018035600160a003833603038112610b8f57600080fd5b808301925050506080013581525060036000868685818110610bad57fe5b905060200281018035600160a003833603038112610bca57600080fd5b808301925050506060016020610be391908101906113b5565b60ff1660ff1681526020019081526020016000206000820151816000019080519060200190610c13929190611006565b506020820151816001019080519060200190610c30929190611006565b5060408201518160020160006101000a81548164ffffffffff021916908364ffffffffff16021790555060608201518160020160056101000a81548160ff021916908360ff160217905550608082015181600301559050506002600081548092919060010191905055507fe7be59f041948522071cfb2dab8e937f3ddf69caabcfc06f18d460b07d0e6b1a848483818110610cc757fe5b905060200281018035600160a003833603038112610ce457600080fd5b808301925050508060000180356001602003833603038112610d0557600080fd5b8083019250508135905060208201915067ffffffffffffffff811115610d2a57600080fd5b600181023603821315610d3c57600080fd5b868685818110610d4857fe5b905060200281018035600160a003833603038112610d6557600080fd5b808301925050508060200180356001602003833603038112610d8657600080fd5b8083019250508135905060208201915067ffffffffffffffff811115610dab57600080fd5b600181023603821315610dbd57600080fd5b604051602001610dd09493929190611a09565b604051602081830303815290604052858584818110610deb57fe5b905060200281018035600160a003833603038112610e0857600080fd5b808301925050506040016020610e21919081019061138c565b868685818110610e2d57fe5b905060200281018035600160a003833603038112610e4a57600080fd5b808301925050506060016020610e6391908101906113b5565b604051610e7293929190611ae6565b60405180910390a18080600101915050610926565b50505050565b338073ffffffffffffffffffffffffffffffffffffffff1673f3ca7784b075bbc683aaeb18c11e47e5ee3f335073ffffffffffffffffffffffffffffffffffffffff1614610f10576040517f08c379a0000000000000000000000000000000000000000000000000000000008152600401610f0790611bc2565b60405180910390fd5b600080541480610f21575060005442105b610f60576040517f08c379a0000000000000000000000000000000000000000000000000000000008152600401610f5790611b82565b60405180910390fd5b82600081905550816001819055507f364a94d3cafea9dc11437d4f0b22fc8de759d8a6dcdfbf4444072f5658813213600054600154604051610fa3929190611c5f565b60405180910390a1505050565b6040518060400160405280600060ff168152602001600081525090565b6040518060a001604052806060815260200160608152602001600064ffffffffff168152602001600060ff168152602001600081525090565b828054600181600116156101000203166002900490600052602060002090601f016020900481019282601f1061104757805160ff1916838001178555611075565b82800160010185558215611075579182015b82811115611074578251825591602001919060010190611059565b5b5090506110829190611086565b5090565b6110a891905b808211156110a457600081600090555060010161108c565b5090565b90565b60008083601f8401126110bd57600080fd5b8235905067ffffffffffffffff8111156110d657600080fd5b6020830191508360208202830111156110ee57600080fd5b9250929050565b600082601f83011261110657600080fd5b815161111961111482611cb5565b611c88565b9150818183526020840193506020810190508385604084028201111561113e57600080fd5b60005b8381101561116e578161115488826111ec565b845260208401935060408301925050600181019050611141565b5050505092915050565b60008135905061118781611ecc565b92915050565b60008151905061119c81611ee3565b92915050565b60008083601f8401126111b457600080fd5b8235905067ffffffffffffffff8111156111cd57600080fd5b6020830191508360018202830111156111e557600080fd5b9250929050565b6000604082840312156111fe57600080fd5b6112086040611c88565b905060006112188482850161128c565b600083015250602061122c8482850161124d565b60208301525092915050565b60008135905061124781611efa565b92915050565b60008151905061125c81611efa565b92915050565b60008135905061127181611f11565b92915050565b60008135905061128681611f28565b92915050565b60008151905061129b81611f28565b92915050565b600080602083850312156112b457600080fd5b600083013567ffffffffffffffff8111156112ce57600080fd5b6112da858286016110ab565b92509250509250929050565b6000602082840312156112f857600080fd5b600082015167ffffffffffffffff81111561131257600080fd5b61131e848285016110f5565b91505092915050565b60006020828403121561133957600080fd5b60006113478482850161118d565b91505092915050565b6000806040838503121561136357600080fd5b600061137185828601611238565b925050602061138285828601611238565b9150509250929050565b60006020828403121561139e57600080fd5b60006113ac84828501611262565b91505092915050565b6000602082840312156113c757600080fd5b60006113d584828501611277565b91505092915050565b600080600080606085870312156113f457600080fd5b600061140287828801611277565b945050602061141387828801611178565b935050604085013567ffffffffffffffff81111561143057600080fd5b61143c878288016111a2565b925092505092959194509250565b60006114568383611924565b60408301905092915050565b600061146e8383611953565b60408301905092915050565b61148381611e31565b82525050565b61149281611da1565b82525050565b60006114a382611d02565b6114ad8185611d30565b93506114b883611cdd565b8060005b838110156114e95781516114d0888261144a565b97506114db83611d23565b9250506001810190506114bc565b5085935050505092915050565b600061150182611d02565b61150b8185611d41565b935061151683611cdd565b8060005b8381101561154757815161152e8882611462565b975061153983611d23565b92505060018101905061151a565b5085935050505092915050565b61155d81611db3565b82525050565b600061156f8385611d74565b935061157c838584611e79565b61158583611ebb565b840190509392505050565b600061159c8385611d85565b93506115a9838584611e79565b82840190509392505050565b60006115c082611d18565b6115ca8185611d63565b93506115da818560208601611e88565b6115e381611ebb565b840191505092915050565b60006115f982611d0d565b6116038185611d52565b9350611613818560208601611e88565b61161c81611ebb565b840191505092915050565b6000815460018116600081146116445760018114611669576116ad565b607f60028304166116558187611d85565b955060ff19831686528086019350506116ad565b600282046116778187611d85565b955061168285611ced565b60005b828110156116a457815481890152600182019150602081019050611685565b82880195505050505b505092915050565b60006116c2601883611d90565b91507f5265766f74696e67206973206e6f7420616c6c6f7765642100000000000000006000830152602082019050919050565b6000611702602583611d90565b91507f52657365742074686520766f746520706572696f64206973206e6f7420616c6c60008301527f6f776564210000000000000000000000000000000000000000000000000000006020830152604082019050919050565b6000611768602083611d90565b91507f20596f7520617265206e6f7420616e20656c696769626c6520766f74657221206000830152602082019050919050565b60006117a8603483611d90565b91507f4a757374207468652074727573746564206163636f756e74206861732061636360008301527f65737320746f20646f2074686973207461736b210000000000000000000000006020830152604082019050919050565b600061180e601383611d90565b91507f4f7574206f6620766f746520706572696f6421000000000000000000000000006000830152602082019050919050565b600061184e602683611d90565b91507f536d61727420636f6e7472616374206973206e6f7420616c6c6f77656420746f60008301527f20766f74652100000000000000000000000000000000000000000000000000006020830152604082019050919050565b600060a08301600083015184820360008601526118c482826115ee565b915050602083015184820360208601526118de82826115ee565b91505060408301516118f360408601826119af565b50606083015161190660608601826119dc565b5060808301516119196080860182611982565b508091505092915050565b60408201600082015161193a60008501826119dc565b50602082015161194d6020850182611982565b50505050565b60408201600082015161196960008501826119fa565b50602082015161197c60208501826119a0565b50505050565b61198b81611e09565b82525050565b61199a81611e09565b82525050565b6119a981611e09565b82525050565b6119b881611e13565b82525050565b6119c781611e13565b82525050565b6119d681611e67565b82525050565b6119e581611e24565b82525050565b6119f481611e24565b82525050565b611a0381611e24565b82525050565b6000611a16828688611590565b9150611a23828486611590565b915081905095945050505050565b6000611a3d8285611627565b9150611a498284611627565b91508190509392505050565b6000602082019050611a6a6000830184611489565b92915050565b60006020820190508181036000830152611a8a8184611498565b905092915050565b60006020820190508181036000830152611aac81846114f6565b905092915050565b6000604082019050611ac96000830186611554565b8181036020830152611adc818486611563565b9050949350505050565b60006060820190508181036000830152611b0081866115b5565b9050611b0f60208301856119be565b611b1c60408301846119eb565b949350505050565b60006060820190508181036000830152611b3e81866115b5565b9050611b4d60208301856119cd565b611b5a604083018461147a565b949350505050565b60006020820190508181036000830152611b7b816116b5565b9050919050565b60006020820190508181036000830152611b9b816116f5565b9050919050565b60006020820190508181036000830152611bbb8161175b565b9050919050565b60006020820190508181036000830152611bdb8161179b565b9050919050565b60006020820190508181036000830152611bfb81611801565b9050919050565b60006020820190508181036000830152611c1b81611841565b9050919050565b60006020820190508181036000830152611c3c81846118a7565b905092915050565b6000602082019050611c596000830184611991565b92915050565b6000604082019050611c746000830185611991565b611c816020830184611991565b9392505050565b6000604051905081810181811067ffffffffffffffff82111715611cab57600080fd5b8060405250919050565b600067ffffffffffffffff821115611ccc57600080fd5b602082029050602081019050919050565b6000819050602082019050919050565b60008190508160005260206000209050919050565b600081519050919050565b600081519050919050565b600081519050919050565b6000602082019050919050565b600082825260208201905092915050565b600082825260208201905092915050565b600082825260208201905092915050565b600082825260208201905092915050565b600082825260208201905092915050565b600081905092915050565b600082825260208201905092915050565b6000611dac82611de9565b9050919050565b6000819050919050565b60007fffffffff0000000000000000000000000000000000000000000000000000000082169050919050565b600073ffffffffffffffffffffffffffffffffffffffff82169050919050565b6000819050919050565b600064ffffffffff82169050919050565b600060ff82169050919050565b6000611e3c82611e43565b9050919050565b6000611e4e82611e55565b9050919050565b6000611e6082611de9565b9050919050565b6000611e7282611e24565b9050919050565b82818337600083830152505050565b60005b83811015611ea6578082015181840152602081019050611e8b565b83811115611eb5576000848401525b50505050565b6000601f19601f8301169050919050565b611ed581611db3565b8114611ee057600080fd5b50565b611eec81611dbd565b8114611ef757600080fd5b50565b611f0381611e09565b8114611f0e57600080fd5b50565b611f1a81611e13565b8114611f2557600080fd5b50565b611f3181611e24565b8114611f3c57600080fd5b5056fea365627a7a723158206940b8bcf983c87684843153a4dc82315ef4427bcdf25e0af35af1ef0ee5f5166c6578706572696d656e74616cf564736f6c63430005100040",
  "source": "// SPDX-License-Identifier: MIT`\r\n\r\npragma experimental ABIEncoderV2;\r\n\r\npragma solidity ^0.5.12;\r\n\r\nlibrary voteLibrary{\r\n\r\n    address constant public trustedAccount = 0xF3ca7784b075Bbc683Aaeb18C11E47E5ee3f3350;\r\n    bytes4 constant public magicValue = 0x1626ba7e;\r\n\r\n    struct voteCounting{\r\n\r\n        uint8 voteID;\r\n        uint voteCount;\r\n\r\n    }\r\n\r\n    function voteCounter( voteCounting[] calldata countResult ) external view returns( voteCounting[] memory ) {\r\n\r\n        voteCounting[] memory sortedCountResult = new voteCounting[]( countResult.length );//Calldata array is read-only. So we need to declare another array!\r\n\r\n        for( uint i = 0 ; i < countResult.length ; i++ ){\r\n\r\n            sortedCountResult[ i ] = countResult[ i ];\r\n\r\n        }\r\n\r\n        voteCounting memory tempCounting;\r\n\r\n        for( uint i = 0 ; i < sortedCountResult.length ; i++ ){\r\n\r\n            for( uint j = i + 1 ; j < sortedCountResult.length ; j++){\r\n\r\n                if( sortedCountResult[ i ].voteCount < sortedCountResult[ j ].voteCount ){\r\n\r\n                    tempCounting = sortedCountResult[ i ];\r\n                    sortedCountResult[ i ] = sortedCountResult[ j ];\r\n                    sortedCountResult[ j ] = voteCounting( tempCounting.voteID , tempCounting.voteCount );\r\n\r\n                }\r\n\r\n            }\r\n\r\n        }\r\n\r\n        return sortedCountResult;\r\n\r\n    }\r\n\r\n    function isValidSignature( bytes32 _hash , bytes calldata _signature ) external view returns ( bytes4 ){\r\n\r\n        address signer = recoverSignature( _hash , _signature );\r\n\r\n        if( signer == trustedAccount ){\r\n\r\n            return 0x1626ba7e;\r\n\r\n        }else{\r\n\r\n            return 0xffffffff;\r\n\r\n        }\r\n\r\n    }\r\n\r\n    function recoverSignature( bytes32 _hash , bytes memory _signature ) public pure returns( address ){\r\n\r\n        require( _signature.length == 65 , \"Signature length is not valid!\" );\r\n\r\n        uint8 v = uint8( _signature[ 64 ] );\r\n        bytes32 r;\r\n        bytes32 s;\r\n\r\n        assembly {\r\n\r\n            r := mload( add( _signature , 0x20 ) )\r\n            s := mload( add( _signature , 0x40 ) )\r\n\r\n        }\r\n\r\n        require( uint256( s ) <= 0x7FFFFFFFFFFFFFFFFFFFFFFFFFFFFFFF5D576E7357A4501DDFE92F46681B20A0 ,\r\n                    \" The 's' value of the signature is not valid! \" );\r\n        require( v == 27 || v == 28 , \" The 'v' value of the signature is not valid! \" );\r\n\r\n        address signer = ecrecover( _hash , v , r , s );\r\n\r\n        require( signer != address( 0x0 ) , \" The signer address is not valid! \" );\r\n\r\n        return signer;\r\n\r\n    }\r\n\r\n}\r\n\r\ncontract voteSystem{\r\n\r\n    address constant public trustedAccount = 0xF3ca7784b075Bbc683Aaeb18C11E47E5ee3f3350; //This address can change for each project using this contract!\r\n    uint public startOfVotePeriod;\r\n    uint public endOfVotePeriod;\r\n    uint public candidateCounter=0;\r\n\r\n    struct candidate{\r\n\r\n        bytes firstname;\r\n        bytes lastname;\r\n        uint40 id;\r\n        uint8 voteID;\r\n        uint voteCount;\r\n\r\n    }\r\n\r\n    event newCandidateAdded( bytes fullname , uint40 id , uint8 voteID );\r\n    event votePeriodUpdate( uint startAt , uint endAt );\r\n    event newVoteTo( bytes votedCandidate , uint candidatesVoteID , address voter );\r\n\r\n    mapping( uint8 => candidate ) private candidateList;\r\n    mapping( address => bool ) private revoteCheck;\r\n\r\n\r\n    modifier onlyTrustedAccount( address accountAddress ) {\r\n\r\n        require( trustedAccount == accountAddress , \"Just the trusted account has access to do this task!\" );\r\n        _;\r\n\r\n    }\r\n\r\n    function addCandidateList( candidate[] calldata listOfCandidates ) external onlyTrustedAccount(msg.sender) {\r\n\r\n        candidateCounter = 0;\r\n\r\n        for ( uint i = 0 ; i < listOfCandidates.length ; i++ ){\r\n\r\n            candidateList[listOfCandidates[i].voteID] = candidate( listOfCandidates[i].firstname , listOfCandidates[i].lastname , listOfCandidates[i].id , listOfCandidates[i].voteID , listOfCandidates[i].voteCount );\r\n            candidateCounter++;\r\n            emit newCandidateAdded( abi.encodePacked( listOfCandidates[i].firstname , listOfCandidates[i].lastname ) , listOfCandidates[i].id , listOfCandidates[i].voteID );\r\n\r\n        }\r\n\r\n    }\r\n\r\n    function viewList( uint8 candidateVoteID) external view returns( candidate memory ){\r\n\r\n        return ( candidateList[ candidateVoteID ] );\r\n\r\n    }\r\n\r\n    function setVotePeriod( uint startTime , uint endTime ) external onlyTrustedAccount( msg.sender ) {\r\n\r\n        require( startOfVotePeriod == 0 || block.timestamp < startOfVotePeriod , \"Reset the vote period is not allowed!\" );\r\n        \r\n        startOfVotePeriod = startTime;\r\n        endOfVotePeriod = endTime;\r\n\r\n        emit votePeriodUpdate( startOfVotePeriod , endOfVotePeriod );\r\n\r\n    }\r\n\r\n    function voteTo( uint8 candidateVoteID , bytes32 voteHash , bytes calldata trustedAccountSignature ) external {\r\n\r\n        require( startOfVotePeriod!= 0 && block.timestamp >= startOfVotePeriod && block.timestamp <= endOfVotePeriod , \"Out of vote period!\" );\r\n        \r\n        //Validating revote\r\n        require( !revoteCheck[ msg.sender ] , \"Revoting is not allowed!\" );\r\n\r\n        //Validating signature\r\n        bytes4 validationResult = voteLibrary.isValidSignature( voteHash , trustedAccountSignature );\r\n        require( validationResult == 0x1626ba7e , \" You are not an eligible voter! \" );\r\n\r\n        //Counting the vote\r\n        uint codeSize;\r\n        address msgSender = msg.sender;\r\n\r\n        assembly {\r\n\r\n            codeSize := extcodesize( msgSender )\r\n\r\n        }\r\n\r\n        if( codeSize == 0){\r\n\r\n            candidateList[ candidateVoteID ].voteCount++;\r\n            revoteCheck[ msg.sender ] = true;\r\n\r\n            emit newVoteTo( abi.encodePacked( candidateList[ candidateVoteID ].firstname , candidateList[ candidateVoteID ].lastname ) ,\r\n                            candidateList[ candidateVoteID ].voteID , msg.sender );\r\n\r\n        }else{\r\n\r\n            revert( \"Smart contract is not allowed to vote!\" );\r\n\r\n        }\r\n\r\n    }\r\n\r\n    function countVote() external view returns( voteLibrary.voteCounting[] memory ){\r\n\r\n        voteLibrary.voteCounting[] memory voteCountingArray;\r\n        voteCountingArray = new voteLibrary.voteCounting[]( candidateCounter );\r\n\r\n        for( uint8 i = 0 ; i < candidateCounter ; i++ ){\r\n\r\n            voteCountingArray[ i ] = voteLibrary.voteCounting( candidateList[ i + 1 ].voteID , candidateList[ i + 1 ].voteCount );\r\n\r\n        }\r\n\r\n        return voteLibrary.voteCounter( voteCountingArray );\r\n    }\r\n\r\n}",
  "sourcePath": "E:\\smartContract\\contracts\\votingSystem.sol",
  "compiler": {
    "name": "solc",
    "version": "0.5.16+commit.9c3226ce.Emscripten.clang"
  },
  "schemaVersion": "3.4.16",
  "updatedAt": "2024-06-08T05:08:05.810Z",
  "networkType": "ethereum",
  "devdoc": {
    "methods": {}
  },
  "userdoc": {
    "methods": {}
  }
}