{
  "contractName": "voteLibrary",
  "abi": [
    {
      "constant": true,
      "inputs": [
        {
          "components": [
            {
              "internalType": "uint8",
              "name": "voteID",
              "type": "uint8"
            },
            {
              "internalType": "uint256",
              "name": "voteCount",
              "type": "uint256"
            }
          ],
          "internalType": "struct voteLibrary.voteCounting[]",
          "name": "countResult",
          "type": "tuple[]"
        }
      ],
      "name": "voteCounter",
      "outputs": [
        {
          "components": [
            {
              "internalType": "uint8",
              "name": "voteID",
              "type": "uint8"
            },
            {
              "internalType": "uint256",
              "name": "voteCount",
              "type": "uint256"
            }
          ],
          "internalType": "struct voteLibrary.voteCounting[]",
          "name": "",
          "type": "tuple[]"
        }
      ],
      "payable": false,
      "stateMutability": "view",
      "type": "function"
    }
  ],
  "bytecode": "0x610595610026600b82828239805160001a60731461001957fe5b30600052607381538281f3fe73000000000000000000000000000000000000000030146080604052600436106100355760003560e01c80631a8c644a1461003a575b600080fd5b610054600480360361004f9190810190610354565b61006a565b6040516100619190610485565b60405180910390f35b606080838390506040519080825280602002602001820160405280156100aa57816020015b61009761025a565b81526020019060019003908161008f5790505b50905060008090505b84849050811015610104578484828181106100ca57fe5b9050604002018036036100e09190810190610399565b8282815181106100ec57fe5b602002602001018190525080806001019150506100b3565b5061010d610277565b60008090505b82518110156101f85760006001820190505b83518110156101ea5783818151811061013a57fe5b60200260200101516020015184838151811061015257fe5b60200260200101516020015110156101dd5783828151811061017057fe5b6020026020010151925083818151811061018657fe5b602002602001015184838151811061019a57fe5b60200260200101819052506040518060400160405280846000015160ff16815260200184602001518152508482815181106101d157fe5b60200260200101819052505b8080600101915050610125565b508080600101915050610113565b508484808060200260200160405190810160405280939291908181526020016000905b8282101561024b5784848390506040020180360361023c9190810190610399565b8152602001906001019061021b565b50505050509250505092915050565b6040518060400160405280600060ff168152602001600081525090565b6040518060400160405280600060ff168152602001600081525090565b60008083601f8401126102a657600080fd5b8235905067ffffffffffffffff8111156102bf57600080fd5b6020830191508360408202830111156102d757600080fd5b9250929050565b6000604082840312156102f057600080fd5b6102fa60406104a7565b9050600061030a8482850161033f565b600083015250602061031e8482850161032a565b60208301525092915050565b60008135905061033981610524565b92915050565b60008135905061034e8161053b565b92915050565b6000806020838503121561036757600080fd5b600083013567ffffffffffffffff81111561038157600080fd5b61038d85828601610294565b92509250509250929050565b6000604082840312156103ab57600080fd5b60006103b9848285016102de565b91505092915050565b60006103ce8383610438565b60408301905092915050565b60006103e5826104e4565b6103ef81856104fc565b93506103fa836104d4565b8060005b8381101561042b57815161041288826103c2565b975061041d836104ef565b9250506001810190506103fe565b5085935050505092915050565b60408201600082015161044e6000850182610476565b5060208201516104616020850182610467565b50505050565b6104708161050d565b82525050565b61047f81610517565b82525050565b6000602082019050818103600083015261049f81846103da565b905092915050565b6000604051905081810181811067ffffffffffffffff821117156104ca57600080fd5b8060405250919050565b6000819050602082019050919050565b600081519050919050565b6000602082019050919050565b600082825260208201905092915050565b6000819050919050565b600060ff82169050919050565b61052d8161050d565b811461053857600080fd5b50565b61054481610517565b811461054f57600080fd5b5056fea365627a7a72315820d3342bf76fd9b6389f7fba2344d9eb928e8a6aa2ddade514cd324aa4bf5946d96c6578706572696d656e74616cf564736f6c63430005100040",
  "source": "// SPDX-License-Identifier: MIT`\r\n\r\npragma experimental ABIEncoderV2;\r\n\r\npragma solidity ^0.5.12;\r\n\r\nlibrary voteLibrary{\r\n\r\n    struct voteCounting{\r\n\r\n        uint8 voteID;\r\n        uint voteCount;\r\n\r\n    }\r\n\r\n    function voteCounter( voteCounting[] calldata countResult ) external view returns( voteCounting[] memory ) {\r\n\r\n        voteCounting[] memory sortedCountResult = new voteCounting[]( countResult.length );//Calldata array is read-only. So we need to declare another array!\r\n\r\n        for( uint i = 0 ; i < countResult.length ; i++ ){\r\n\r\n            sortedCountResult[ i ] = countResult[ i ];\r\n\r\n        }\r\n\r\n        voteCounting memory tempCounting;\r\n\r\n        for( uint i = 0 ; i < sortedCountResult.length ; i++ ){\r\n\r\n            for( uint j = i + 1 ; j < sortedCountResult.length ; j++){\r\n\r\n                if( sortedCountResult[ i ].voteCount < sortedCountResult[ j ].voteCount ){\r\n\r\n                    tempCounting = sortedCountResult[ i ];\r\n                    sortedCountResult[ i ] = sortedCountResult[ j ];\r\n                    sortedCountResult[ j ] = voteCounting( tempCounting.voteID , tempCounting.voteCount );\r\n\r\n                }\r\n\r\n            }\r\n\r\n        }\r\n\r\n        return countResult;\r\n\r\n    }\r\n\r\n}\r\n\r\ncontract voteSystem{\r\n\r\n    address constant public trustedAccount = 0xF3ca7784b075Bbc683Aaeb18C11E47E5ee3f3350; //This address can change for each project using this contract!\r\n    uint public startOfVotePeriod;\r\n    uint public endOfVotePeriod;\r\n    uint public candidateCounter=0;\r\n\r\n    struct candidate{\r\n\r\n        bytes firstname;\r\n        bytes lastname;\r\n        uint40 id;\r\n        uint8 voteID;\r\n        uint voteCount;\r\n\r\n    }\r\n\r\n    event newCandidateAdded( string fullname , uint40 id , uint8 voteID );\r\n    event votePeriodUpdate( uint startAt , uint endAt );\r\n    event newVoteTo( bytes votedCandidate , uint candidatesVoteID , address voter );\r\n\r\n    mapping( uint8 => candidate ) private candidateList;\r\n\r\n    modifier onlyTrustedAccount( address accountAddress ) {\r\n\r\n        require( trustedAccount == accountAddress , \"Just the trusted account has access to do this task!\" );\r\n        _;\r\n\r\n    }\r\n\r\n    constructor( candidate[] memory listOfCandidates ) public {\r\n\r\n        require( tx.origin == trustedAccount , \"Just the trusted account can deploy vote system!\");\r\n\r\n        for ( uint i = 0 ; i < listOfCandidates.length ; i++ ){\r\n\r\n            candidateList[listOfCandidates[i].voteID] = candidate( listOfCandidates[i].firstname , listOfCandidates[i].lastname , listOfCandidates[i].id , listOfCandidates[i].voteID , listOfCandidates[i].voteCount );\r\n            candidateCounter++;\r\n            emit newCandidateAdded( string( abi.encodePacked( listOfCandidates[i].firstname , listOfCandidates[i].lastname ) ) , listOfCandidates[i].id , listOfCandidates[i].voteID );\r\n\r\n        }\r\n\r\n    }\r\n\r\n    function viewList( uint8 candidateVoteID) external view returns( candidate memory ){\r\n\r\n        return ( candidateList[ candidateVoteID ] );\r\n\r\n    }\r\n\r\n    function setVotePeriod( uint startTime , uint endTime ) external onlyTrustedAccount( msg.sender ) {\r\n\r\n        require( startOfVotePeriod == 0 || block.timestamp < startOfVotePeriod , \"Reset the vote period is not allowed!\" );\r\n        \r\n        startOfVotePeriod = startTime;\r\n        endOfVotePeriod = endTime;\r\n\r\n        emit votePeriodUpdate( startOfVotePeriod , endOfVotePeriod );\r\n\r\n    }\r\n\r\n    function voteTo( uint8 candidateVoteID ) external {\r\n\r\n        //require( block.timestamp >= startOfVotePeriod && block.timestamp <= endOfVotePeriod , \"Out of vote period!\" );\r\n        \r\n        uint codeSize;\r\n        address msgSender = msg.sender;\r\n\r\n        assembly {\r\n\r\n            codeSize := extcodesize( msgSender )\r\n\r\n        }\r\n\r\n        if( codeSize == 0){\r\n\r\n            candidateList[ candidateVoteID ].voteCount++;\r\n\r\n            emit newVoteTo( abi.encodePacked( candidateList[ candidateVoteID ].firstname , candidateList[ candidateVoteID ].lastname ) ,\r\n                            candidateList[ candidateVoteID ].voteID , msg.sender );\r\n\r\n        }else{\r\n\r\n            revert( \"Smart contract is not allowed to vote!\" );\r\n\r\n        }\r\n\r\n    }\r\n\r\n    function countVote() external view returns( voteLibrary.voteCounting[] memory ){\r\n\r\n        voteLibrary.voteCounting[] memory voteCountingArray;\r\n        voteCountingArray = new voteLibrary.voteCounting[]( candidateCounter );\r\n\r\n        for( uint8 i = 0 ; i < candidateCounter ; i++ ){\r\n\r\n            voteCountingArray[ i ] = voteLibrary.voteCounting( candidateList[ i + 1 ].voteID , candidateList[ i + 1 ].voteCount );\r\n\r\n        }\r\n\r\n        return voteLibrary.voteCounter( voteCountingArray );\r\n    }\r\n\r\n}",
  "sourcePath": "E:\\smartContract\\contracts\\votingSystem.sol",
  "compiler": {
    "name": "solc",
    "version": "0.5.16+commit.9c3226ce.Emscripten.clang"
  },
  "schemaVersion": "3.4.16",
  "updatedAt": "2024-06-05T14:59:34.479Z",
  "networkType": "ethereum",
  "devdoc": {
    "methods": {}
  },
  "userdoc": {
    "methods": {}
  }
}