{
  "contractName": "VoteLibrary",
  "abi": [
    {
      "inputs": [],
      "name": "MAGIC_VALUE",
      "outputs": [
        {
          "internalType": "bytes4",
          "name": "",
          "type": "bytes4"
        }
      ],
      "stateMutability": "view",
      "type": "function",
      "constant": true
    },
    {
      "inputs": [],
      "name": "TRUSTED_ACCOUNT",
      "outputs": [
        {
          "internalType": "address",
          "name": "",
          "type": "address"
        }
      ],
      "stateMutability": "view",
      "type": "function",
      "constant": true
    },
    {
      "inputs": [
        {
          "components": [
            {
              "internalType": "uint8",
              "name": "voteID",
              "type": "uint8"
            },
            {
              "internalType": "uint256",
              "name": "voteCount",
              "type": "uint256"
            }
          ],
          "internalType": "struct VoteLibrary.VoteCounting[]",
          "name": "countResult",
          "type": "tuple[]"
        }
      ],
      "name": "voteCounter",
      "outputs": [
        {
          "components": [
            {
              "internalType": "uint8",
              "name": "voteID",
              "type": "uint8"
            },
            {
              "internalType": "uint256",
              "name": "voteCount",
              "type": "uint256"
            }
          ],
          "internalType": "struct VoteLibrary.VoteCounting[]",
          "name": "",
          "type": "tuple[]"
        }
      ],
      "stateMutability": "view",
      "type": "function",
      "constant": true
    },
    {
      "inputs": [
        {
          "internalType": "bytes32",
          "name": "hashOfVote",
          "type": "bytes32"
        },
        {
          "internalType": "bytes",
          "name": "signatureOfTrustedAccount",
          "type": "bytes"
        }
      ],
      "name": "isValidSignature",
      "outputs": [
        {
          "internalType": "bytes4",
          "name": "",
          "type": "bytes4"
        }
      ],
      "stateMutability": "view",
      "type": "function",
      "constant": true
    },
    {
      "inputs": [
        {
          "internalType": "bytes32",
          "name": "hashOfVote",
          "type": "bytes32"
        },
        {
          "internalType": "bytes",
          "name": "signatureOfTrustedAccount",
          "type": "bytes"
        }
      ],
      "name": "recoverSignature",
      "outputs": [
        {
          "internalType": "address",
          "name": "",
          "type": "address"
        }
      ],
      "stateMutability": "pure",
      "type": "function",
      "constant": true
    }
  ],
  "bytecode": "0x61091261003a600b82828239805160001a60731461002d57634e487b7160e01b600052600060045260246000fd5b30600052607381538281f3fe73000000000000000000000000000000000000000030146080604052600436106100615760003560e01c806313f3f9d3146100665780631626ba7e1461008f57806320673196146100af57806367a3d64e146100b75780637621fd67146100cc575b600080fd5b61007961007436600461056e565b6100df565b604051610086919061075e565b60405180910390f35b6100a261009d3660046105de565b610349565b60405161008691906107ce565b6100a26103d7565b6100bf6103e2565b604051610086919061074a565b6100bf6100da366004610655565b6103fa565b606060008267ffffffffffffffff81111561010a57634e487b7160e01b600052604160045260246000fd5b60405190808252806020026020018201604052801561014357816020015b610130610557565b8152602001906001900390816101285790505b50905060005b838110156101c55784848281811061017157634e487b7160e01b600052603260045260246000fd5b90506040020180360381019061018791906106ee565b8282815181106101a757634e487b7160e01b600052603260045260246000fd5b602002602001018190525080806101bd90610895565b915050610149565b506101ce610557565b60005b825181101561033f5760006101e782600161087d565b90505b835181101561032c5783818151811061021357634e487b7160e01b600052603260045260246000fd5b60200260200101516020015184838151811061023f57634e487b7160e01b600052603260045260246000fd5b602002602001015160200151101561031a5783828151811061027157634e487b7160e01b600052603260045260246000fd5b6020026020010151925083818151811061029b57634e487b7160e01b600052603260045260246000fd5b60200260200101518483815181106102c357634e487b7160e01b600052603260045260246000fd5b60200260200101819052506040518060400160405280846000015160ff168152602001846020015181525084828151811061030e57634e487b7160e01b600052603260045260246000fd5b60200260200101819052505b8061032481610895565b9150506101ea565b508061033781610895565b9150506101d1565b5090949350505050565b60008061038c8585858080601f0160208091040260200160405190810160405280939291908181526020018383808284376000920191909152506103fa92505050565b90506001600160a01b03811673f3ca7784b075bbc683aaeb18c11e47e5ee3f335014156103c35750630b135d3f60e11b90506103d0565b506001600160e01b031990505b9392505050565b630b135d3f60e11b81565b73f3ca7784b075bbc683aaeb18c11e47e5ee3f335081565b600081516041146104265760405162461bcd60e51b815260040161041d906107ff565b60405180910390fd5b60008260408151811061044957634e487b7160e01b600052603260045260246000fd5b0160209081015190840151604085015160f89290921c9250907f7fffffffffffffffffffffffffffffff5d576e7357a4501ddfe92f46681b20a08111156104a25760405162461bcd60e51b815260040161041d90610837565b8260ff16601b14806104b757508260ff16601c145b6104d35760405162461bcd60e51b815260040161041d9061081b565b6000600187858585604051600081526020016040526040516104f894939291906107b0565b6020604051602081039080840390855afa15801561051a573d6000803e3d6000fd5b5050604051601f1901519150506001600160a01b03811661054d5760405162461bcd60e51b815260040161041d906107e3565b9695505050505050565b604080518082019091526000808252602082015290565b60008060208385031215610580578182fd5b823567ffffffffffffffff80821115610597578384fd5b818501915085601f8301126105aa578384fd5b8135818111156105b8578485fd5b8660206040830285010111156105cc578485fd5b60209290920196919550909350505050565b6000806000604084860312156105f2578081fd5b83359250602084013567ffffffffffffffff80821115610610578283fd5b818601915086601f830112610623578283fd5b813581811115610631578384fd5b876020828501011115610642578384fd5b6020830194508093505050509250925092565b60008060408385031215610667578182fd5b8235915060208084013567ffffffffffffffff80821115610686578384fd5b818601915086601f830112610699578384fd5b8135818111156106ab576106ab6108c6565b6106bd601f8201601f19168501610853565b915080825287848285010111156106d2578485fd5b8084840185840137810190920192909252919491935090915050565b6000604082840312156106ff578081fd5b6040516040810181811067ffffffffffffffff82111715610722576107226108c6565b604052823560ff81168114610735578283fd5b81526020928301359281019290925250919050565b6001600160a01b0391909116815260200190565b602080825282518282018190526000919060409081850190868401855b828110156107a3578151805160ff16855286015186850152928401929085019060010161077b565b5091979650505050505050565b93845260ff9290921660208401526040830152606082015260800190565b6001600160e01b031991909116815260200190565b6020808252600290820152610c0d60f21b604082015260600190565b602080825260029082015261303160f01b604082015260600190565b602080825260029082015261303360f01b604082015260600190565b602080825260029082015261181960f11b604082015260600190565b60405181810167ffffffffffffffff81118282101715610875576108756108c6565b604052919050565b60008219821115610890576108906108b0565b500190565b60006000198214156108a9576108a96108b0565b5060010190565b634e487b7160e01b600052601160045260246000fd5b634e487b7160e01b600052604160045260246000fdfea26469706673582212203d157cb6ea80f197e8802dc5dec6d024250624675e33c4266f2be28012b8fe3f64736f6c63430008000033",
  "immutableReferences": {},
  "source": "// SPDX-License-Identifier: MIT\r\n\r\npragma solidity ^0.8.0;\r\n\r\nlibrary VoteLibrary{\r\n    // Constants\r\n    address constant public TRUSTED_ACCOUNT = 0xF3ca7784b075Bbc683Aaeb18C11E47E5ee3f3350;\r\n    bytes4 constant public MAGIC_VALUE = 0x1626ba7e;\r\n\r\n    // Structs\r\n    struct VoteCounting{\r\n        uint8 voteID;\r\n        uint voteCount;\r\n    }\r\n\r\n    // Functions\r\n    function voteCounter(VoteCounting[] calldata countResult) external view returns(VoteCounting[] memory) {\r\n        // Sort the vote counts\r\n        VoteCounting[] memory sortedCountResult = new VoteCounting[](countResult.length);// Calldata array is read-only. So we need to use another array instead countResult!\r\n        for (uint i = 0 ; i < countResult.length ; i++) {\r\n            sortedCountResult[i] = countResult[i];\r\n        }\r\n        VoteCounting memory tempCounting;\r\n        for (uint i = 0 ; i < sortedCountResult.length ; i++) {\r\n            for (uint j = i + 1 ; j < sortedCountResult.length ; j++) {\r\n                if (sortedCountResult[i].voteCount < sortedCountResult[j].voteCount) {\r\n                    tempCounting = sortedCountResult[i];\r\n                    sortedCountResult[i] = sortedCountResult[j];\r\n                    sortedCountResult[j] = VoteCounting(tempCounting.voteID, tempCounting.voteCount);\r\n                }\r\n            }\r\n        }\r\n        return sortedCountResult;\r\n    }\r\n    \r\n    function isValidSignature(bytes32 hashOfVote, bytes calldata signatureOfTrustedAccount) external view returns (bytes4) {\r\n        address signer = recoverSignature(hashOfVote, signatureOfTrustedAccount);\r\n        if (signer == TRUSTED_ACCOUNT) {\r\n            return 0x1626ba7e;\r\n        }else{\r\n            return 0xffffffff;\r\n        }\r\n    }\r\n\r\n    function recoverSignature(bytes32 hashOfVote, bytes memory signatureOfTrustedAccount) public pure returns(address) {\r\n        // Is signatureOfTrustedAccount an Ethereum signature\r\n        require(signatureOfTrustedAccount.length == 65 , \"01\");//01: signatureOfTrustedAccount length is not valid!\r\n\r\n        // Validate the provided Ethereum signature (signatureOfTrustedAccount)\r\n        uint8 v = uint8( signatureOfTrustedAccount[ 64 ] );\r\n        bytes32 r;\r\n        bytes32 s;\r\n        assembly {\r\n            r := mload( add( signatureOfTrustedAccount , 0x20 ) )\r\n            s := mload( add( signatureOfTrustedAccount , 0x40 ) )\r\n        }\r\n        require(uint256( s ) <= 0x7FFFFFFFFFFFFFFFFFFFFFFFFFFFFFFF5D576E7357A4501DDFE92F46681B20A0,\r\n                    \"02\");// 02: The 's' value of the signatureOfTrustedAccount is not valid!\r\n        require(v == 27 || v == 28, \"03\");// 03: The 'v' value of the signatureOfTrustedAccount is not valid!\r\n\r\n        // Recover the signer's address from the signatureOfTrustedAccount\r\n        address signer = ecrecover(hashOfVote, v, r, s);\r\n\r\n        // Validate the structure of the recovered address\r\n        require( signer != address( 0x0 ), \"04\");// 04: The signer address is not valid!\r\n        return signer;\r\n    }\r\n}\r\n\r\ncontract VoteSystem{\r\n    // Constants\r\n    address constant public TRUSTED_ACCOUNT = 0xF3ca7784b075Bbc683Aaeb18C11E47E5ee3f3350; // This address can change for each project using this contract!\r\n    uint public startOfVotePeriod;\r\n    uint public endOfVotePeriod;\r\n    uint public candidateCounter=0;\r\n\r\n    // Structs\r\n    struct Candidate{\r\n        bytes firstname;\r\n        bytes lastname;\r\n        uint40 id;\r\n        uint8 voteID;\r\n        uint voteCount;\r\n    }\r\n\r\n    // Events\r\n    event NewCandidateAdded(bytes fullname, uint40 id, uint8 voteID);\r\n    event VotePeriodUpdate(uint startAt, uint endAt);\r\n    event NewVoteTo(bytes votedCandidate, uint candidatesVoteID, address voter);\r\n\r\n    // Mappings\r\n    mapping(uint8 => Candidate) private candidateList;\r\n    mapping(address => bool) private revoteCheck;\r\n\r\n    // Modifiers\r\n    modifier onlyTrustedAccount(address accountAddress) {\r\n        require( TRUSTED_ACCOUNT == accountAddress, \"05\" );// 05: Just the trusted account has access to do this task!\r\n        _;\r\n    }\r\n\r\n    // Functions\r\n    function addCandidateList(Candidate[] calldata listOfCandidates) external onlyTrustedAccount(msg.sender) {\r\n        candidateCounter = 0;\r\n        for (uint i = 0 ; i < listOfCandidates.length ; i++) {\r\n            candidateList[listOfCandidates[i].voteID] = Candidate(listOfCandidates[i].firstname, listOfCandidates[i].lastname, listOfCandidates[i].id, listOfCandidates[i].voteID, listOfCandidates[i].voteCount);\r\n            candidateCounter++;\r\n            emit NewCandidateAdded(abi.encodePacked(listOfCandidates[i].firstname, listOfCandidates[i].lastname), listOfCandidates[i].id, listOfCandidates[i].voteID);\r\n        }\r\n    }\r\n\r\n    function viewList(uint8 candidateVoteID) external view returns(Candidate memory) {\r\n        return (candidateList[candidateVoteID]);\r\n    }\r\n\r\n    function setVotePeriod(uint startTime, uint endTime) external onlyTrustedAccount(msg.sender) {\r\n        // Ensures that this function is executed before the voting period starts\r\n        require(startOfVotePeriod == 0 || block.timestamp < startOfVotePeriod, \"06\");// 06: Reset the vote period is not allowed!\r\n        // Sets the start and end times for voting\r\n        startOfVotePeriod = startTime;\r\n        endOfVotePeriod = endTime;\r\n        emit VotePeriodUpdate(startOfVotePeriod, endOfVotePeriod);\r\n    }\r\n\r\n    function voteTo(uint8 candidateVoteID, bytes32 voteHash, bytes calldata trustedAccountSignature) external {\r\n        // Ensures that this function only executed during the voting period\r\n        require(startOfVotePeriod!= 0 && block.timestamp >= startOfVotePeriod && block.timestamp <= endOfVotePeriod, \"07\");// 07: Out of vote period!\r\n        //Validate revote\r\n        require(!revoteCheck[ msg.sender ], \"08\");// 08: Revoting is not allowed!\r\n        //Validate signatureOfTrustedAccount\r\n        bytes4 validationResult = VoteLibrary.isValidSignature(voteHash, trustedAccountSignature);\r\n        require(validationResult == 0x1626ba7e, \"09\");// 09: You are not an eligible voter!\r\n        //Count the vote\r\n        uint codeSize;\r\n        address msgSender = msg.sender;\r\n        assembly {\r\n            codeSize := extcodesize( msgSender )\r\n        }\r\n        require(codeSize == 0, \"10\");// 10: Smart contract is not allowed to vote!\r\n        candidateList[candidateVoteID].voteCount++;\r\n        revoteCheck[msg.sender] = true;\r\n        emit NewVoteTo(abi.encodePacked(candidateList[candidateVoteID].firstname, candidateList[candidateVoteID].lastname),candidateList[candidateVoteID].voteID, msg.sender);\r\n    }\r\n\r\n    function countVote() external view returns(VoteLibrary.VoteCounting[] memory) {\r\n        // Instantiation of an array with type of the library's struct\r\n        VoteLibrary.VoteCounting[] memory voteCountingArray;\r\n        voteCountingArray = new VoteLibrary.VoteCounting[](candidateCounter);\r\n        for (uint8 i = 0 ; i < candidateCounter ; i++) {\r\n            voteCountingArray[i] = VoteLibrary.VoteCounting(candidateList[i + 1].voteID, candidateList[i + 1].voteCount);\r\n        }\r\n        return VoteLibrary.voteCounter(voteCountingArray);\r\n    }\r\n}",
  "sourcePath": "E:\\smartContract\\contracts\\votingSystem.sol",
  "compiler": {
    "name": "solc",
    "version": "0.8.0+commit.c7dfd78e.Emscripten.clang"
  },
  "schemaVersion": "3.4.16",
  "updatedAt": "2024-06-12T09:06:52.047Z",
  "networkType": "ethereum",
  "devdoc": {
    "kind": "dev",
    "methods": {},
    "version": 1
  },
  "userdoc": {
    "kind": "user",
    "methods": {},
    "version": 1
  }
}